:020000040800F2
:10000000000200208904000825040008E10300081C
:1000100035040008450400085504000800000000ED
:10002000000000000000000000000000C503000800
:100030006504000800000000A9030008750400081A
:1000400025010008250100082501000825010008F8
:100050002501000825010008C10B0008C10B00089C
:10006000C10B0008C10B0008C10B000825010008E6
:1000700025010008250100082501000825010008C8
:1000800025010008250100082501000825010008B8
:10009000250100082501000825010008C10B000802
:1000A000250100082501000825010008051C00089D
:1000B0002501000825010008250100082501000888
:1000C0002501000825010008250100082501000878
:1000D000250100082D1B0008331B0008391B0008F0
:1000E000C10B0008FD41000825010008250100089A
:1000F0002501000800000000250100082501000876
:100100002501000825010008250100082501000837
:100110002501000825010008250100082501000827
:100120002501000800F0A6B900F072BD704700007C
:1001300070B50C46064600F0A1FA094B094A1D6845
:100140002C44944202D8084A944207D20C234FF020
:10015000FF35336000F09AFA284670BD1C60F9E75D
:100160000002002000400120804300201946104674
:1001700000F05ABD1946104600F05EBD132303601F
:100180004FF0FF307047132303604FF0FF3070478C
:10019000132303604FF0FF307047002302290360F0
:1001A0008CBF002001207047134910B50C68002057
:1001B00094FAA4F18442B1FA81F108BF4FF0FF3103
:1001C0000E4C0F4B54F8211018600E4B09681A683A
:1001D000A1F1080494420ED022B11079092804BF7D
:1001E0000A2010710922012001F8042C31F9021CA7
:1001F000054A1C60118010BDF80600200C07002085
:100200000407002000070020FC060020082930B564
:1002100003791AD9082B14D842791A4B00F1080433
:1002200053F822507DB12D68856053F822502C6020
:1002300043F822400123144A4479A340146823431D
:100240001360017130BD8460F2E7082BF9D945795C
:100250000C4B53F825203AB11468A2420BBF002280
:10026000246843F825201460427953F82230002B8B
:10027000E7D10123044C03FA02F2236823EA0203C4
:100280002360DEE70C070020F806002008B5094BC4
:100290001B681A79082A02D95B79834205D900F0D4
:1002A000F8F918B10122044B1A6008BDBDE80840F6
:1002B00000F072B80007002004070020002408B5F1
:1002C00000F0DCF9084B094A1B88094D1BB242F8C3
:1002D0002340084A214613682868013B1360FFF752
:1002E00095FF2C6000F054F8FC0600204C0700201D
:1002F000000700200807002013444FF0773223F056
:10030000030310B51C1F43F8042C620742BF4FF0D3
:100310008832A3F1080443F8082C4FF0807344E9B5
:1003200002030D4B002244F80C3C0323022044E955
:1003300005320123224644E907300B2342F8201DF1
:1003400042F8043D013B032BFAD120466FF0020333
:1003500040F8443D10BD00BFBD0200080548064AF4
:10036000064B0168914201D1984201D3181A704797
:100370000430F6E700000020FEE7FEE70002002060
:10038000EFF308807047000000487047000000202D
:1003900000F078F901DFFEE7024A536843F080532A
:1003A0005360704700ED00E0EFF3098020E9F00FA3
:1003B00040F804ED02490968086000F003F8000005
:1003C00000070020FFF7F0FE04480068016801C93B
:1003D000B1E8F00F81F30988004700000007002012
:1003E0000D4B0E4A0E496846904203D8984201D9F7
:1003F000002102E009468D46012104207246024296
:1004000002D1EFF3088001E0EFF309802DE9F00F4E
:100410006B4600F06FF800BF58010020004001203B
:100420000002002008B50249042000F031FE00BFA0
:10043000815A010808B50249062000F029FE00BFD4
:100440006E5A010808B50249072000F021FE00BFDE
:100450004858010808B50249082000F019FE00BFFD
:100460008D5A010808B50249092000F011FE00BFAD
:100470005A58010808B502490A2000F009FE00BFD9
:100480006C5801087047704708B5FFF7FBFF6A46D4
:10049000114B1249934213D3114A124B12498B420A
:1004A00011D30021114B124A934211D3FFF7EBFFF6
:1004B00000F0E0FD12F09CFCBDE8084000F01EBE1C
:1004C00043F8041BE6E752F8040F43F8040BE6E791
:1004D00043F8041BE8E700BF00000020FEE7FEE74A
:1004E000E8BF010800020020F4060020F806002002
:1004F000804300202DE9F04F9A464A4B93469A6B71
:100500008FB003925A6B9F6A0492DA6A044605928E
:100510001A6BDB6B06920793434B88461A68434B72
:100520009A4202D0424813F081F9B8F1000F4ED040
:100530000025404813F07AF92E463F4813F076F92B
:1005400039463E4813F0EAF805993D4813F0E6F8BD
:1005500006993C4813F0E2F807993B4813F0DEF89F
:100560003A0403D50399394813F0D8F83B0603D56C
:100570000499374813F0D2F8364813F057F9594622
:10058000354813F0CBF8B8F1000F1BD1334813F006
:100590004DF93146324813F0C1F86946314BC91A5A
:1005A00003D54942304813F0B9F820468268C36841
:1005B00001698C4641698E46AD46514691E8F00F7F
:1005C0004168006801BE2949052000F061FDD4E9B9
:1005D000023008902069D4E906690990606919F42D
:1005E000007F0A902248D4E9001208BF04F12005D8
:1005F000CDE90C2318BF04F124050B9113F016F973
:10060000089B0B9900931B48DDE90C2313F086F837
:10061000DDE90912CDF800903346174813F07EF853
:100620008BE700BF00ED00E000000020FEE7FEE7E2
:100630007A58010890580108555901085E59010877
:100640006E5901087E5901088E5901089E5901080A
:10065000AE590108BE590108C3590108D55901080E
:10066000065A0108580100202E5A01085B5A010859
:10067000BF580108DA58010817590108EFF3108034
:1006800072B6704762B6EFF31080704780F310883F
:100690007047EFF30580C0B270470000744B01282B
:1006A0002DE9F047187005D002281FD04FF0FF3019
:1006B000BDE8F0876F4B1A6842F00E021A601A68A4
:1006C00042F400721A605A6842F4E0625A606A4A60
:1006D000136943F004031361FFF7D0FFBFF34F8F9B
:1006E00030BFFFF7D3FF00F01DFFDFE7614B0025B0
:1006F0001A68DFF8C49122F002021A601A68DFF863
:10070000BC8142F004021A601A685C4F42F0010298
:100710001A601A6842F400721A60574A136943F06B
:1007200004031361FFF7AAFF064605F58014803421
:10073000A402204600F0C4FD78B1236849F82530B2
:10074000E36848F82530A388228D27F815304C4BF4
:1007500023F815200135082DE7D100244FF01808A3
:10076000484F494D08FB04F2D1598B8913F40053CB
:100770000BD08B893A4423F400531B041B0C8B8150
:10078000D068042100F0A8F801232B550134032C74
:10079000E8D14FF48051012000F0C8FF01280FD1AB
:1007A0003A4B1B889A075FD40821394800F094F827
:1007B0000821384800F090F80321374800F08CF801
:1007C0004FF48041002000F0B1FF01280FD1334BDE
:1007D0001B889B074AD40821314800F07DF8082186
:1007E000304800F079F803212F4800F075F8BFF386
:1007F0004F8F30BF00F096FE0027DFF8C0A0DFF873
:100800007C90DFF8B48007F580148034A402204681
:1008100000F056FD78B15AF82730E36039F8173008
:10082000A38058F827302360154B33F81730013771
:10083000082F2385E7D12B7823B11C4A938943F4F1
:10084000005393816B7823B1194A938943F4005381
:100850009381AB7823B1174A938943F40053938172
:100860003046FFF713FF21E704219EE70421B3E799
:10087000330800200070004000ED00E00008002078
:10088000D0070020A45A01083008002000300140A1
:100890000500024007000240060002400038004008
:1008A0000D0402400F0402400E04024000380140D3
:1008B0000044004000480040E007002010080020ED
:1008C0007047000008B5FFF7D9FE0022014B1A70EF
:1008D00008BD00BF33080020F8B5431C0D4637D0D3
:1008E000012620F00F0400F00F07C0F3832006FA62
:1008F00000F1022000F0E6FE032307FA06FC03FAEB
:100900000CF3D843226805F00301024022602268FC
:1009100001FA0CF111432160E268BE401040E06032
:100920000020E168C5F3810202FA0CF20A43E2609A
:10093000A288C5F3001522EA0602A280A288BD4063
:100940001543ADB2A580A268B6B21343A360268555
:10095000F8BD00002DE9F0411646421C05468846C8
:100960004BD001212A4A00F00F0442F83430069B94
:1009700002EBC4025360C0F38327084600F0A2FED6
:1009800041462846FFF7A8FF042C224B37DC012202
:10099000A11D8A401A60012000FA04F2D2431E4BC6
:1009A000996811409960D3F808C006EA0001A14097
:1009B00041EA0C019960D968C6400A40DA60DA68F9
:1009C000A6401643DE600F2604F00C0404F18044B8
:1009D00004F5803405F00302A1689200964021EAF4
:1009E0000601A160A168974000FA05F50F43A760D2
:1009F0005D611868054300201D60BDE8F081092C89
:100A000002DC4FF40002C5E74FF480725A60C2E77F
:100A10003408002000E100E000040140431C70B5F0
:100A20001FD0032200F00F0420F00F031D686600A2
:100A3000B24025EA02050222072C94BF00240124BB
:100A4000B2402A431A6003EB84030F2400F007002E
:100A50001A6A8000844022EA040201FA00F010437E
:100A6000186270BD431C10B5044611D00121C0F3BB
:100A700083239940022000F025FE032324F00F0277
:100A800004F00F041168640003FA04F40C431460CA
:100A900010BD0000431C10B517D000F00F04A210C9
:100AA0000A4B023253F822300F2200F00301890072
:100AB0008A40C0F383201A408840824205D1012336
:100AC000034AA34011680B43136010BD00000140AE
:100AD00000040140431C10B518D000F00F040C4B6B
:100AE000A110023153F821100F2300F003029200ED
:100AF0009340C0F383200B409040834206D10122F3
:100B00000449A2400B6823EA02030B6010BD00BF3A
:100B10000000014000040140431C10B516D003231F
:100B200020F00F0200F00F00410014688B402340BA
:100B3000CB40DBB2012B05D1928A8340134043FAAC
:100B400000F010BD2BB9128A0123F6E76FF0010007
:100B5000F7E74FF0FF30F4E7431C0AD020F00F0313
:100B60001A68032300F00F0040008340134023FA6B
:100B700000F07047431C07D0012320F00F0200F063
:100B80000F0003FA00F090617047431C08D0012366
:100B900020F00F0200F00F00103003FA00F0906117
:100BA000704710B50446FFF7B7FF20B12046BDE8F7
:100BB0001040FFF7EABF2046BDE81040FFF7DABF5C
:100BC0002DE9F04100244FF001080E4D0E4F6E69E3
:100BD0002A68164008FA04F3334206D06B6107EB2B
:100BE000C40357F83420586890470134102CF1D1D1
:100BF000064B1B681BB1BDE8F041FFF7CDBBBDE85C
:100C0000F08100BF000401403408002004070020E8
:100C1000034B044A4FF4E131002000F079BF00BFDC
:100C200004020020171300080A460146014800F09C
:100C30007DBB00BF0402002010B50C460A460146E9
:100C4000002000F09DFE204610BD002000F09ABF5D
:100C500038B5044C2568FFF7F8FF2368AB42F9D19B
:100C6000184338BDFC080020034B196819B982B23B
:100C7000084600F065BF7047F408002010B5094A27
:100C8000136843B19C6881688C4207D303D15C68C8
:100C900041688C4202D90360106010BD1A461B687F
:100CA000EFE700BF000900202DE9F047294E326828
:100CB000B24602F58032326032681AB9264B1A68A1
:100CC00001321A600020254B254C1A6818602368F1
:100CD00084461946234FDFF880E0DFF88C803A60C5
:100CE00021B1DEF800508E68AE4217D900B1216004
:100CF000BCF1000F10D00021CCF800103AB3C3B102
:100D00005168586881428CBF1946114608461268DE
:100D10001B6882B903603960BDE8F0874D68DAF876
:100D2000009005EA08054D45E0D18C460120096890
:100D3000D6E71146EAE70BB90260ECE754685D6854
:100D4000AC428CBF1C46144604602046DFE73B6083
:100D5000E2E700BFFC080020F8080020040900209A
:100D600000090020080900200000FFFF01232DE9F1
:100D7000F0412E4F2E4C3B602368A3B9FFF794FF40
:100D80004FF6FF75FFF761FFA842FBD000254FF03B
:100D9000000823685BB9FFF758FF854224D9FFF7A5
:100DA00083FF0025F5E7FFF750FF0546EFE75E6894
:100DB000FFF74BFF854205D8B3B2834202D91B1A15
:100DC000132BE8D823685E68FFF73FFF854202D8FF
:100DD000B6B28642F6D823681A68C3E90188226051
:100DE000D3E903209047D4E723686BB15E68FFF72F
:100DF0002CFF063E14308642CBD3002330463B60A6
:100E0000BDE8F041FFF730BFFFF71FFF8542064600
:100E1000C5D800F114039BB2984204D9FFF715FF1F
:100E20008642FBD9BBE74FF6FF76E6E7F4080020E1
:100E300008090020144A1368834210D11B6813600C
:100E40001BB158680638FFF70FBF4FF6FF70FAE77F
:100E50009842196801D1116070471A460B46002B61
:100E6000F6D10A4A13681BB9094A136833B97047A7
:100E700098421968EFD01A460B46F4E79842196871
:100E8000E9D01A460B46F1E70809002004090020C2
:100E90000009002008B50023054A1846054900F05E
:100EA00083FEBDE808404FF0FF30FFF7DDBE00BF16
:100EB0006D0D000840420F0070B5084EFFF7C8FEE8
:100EC00034680546FFF7C4FE8542F7D80022234662
:100ED000141843F100052046294670BDF80800208B
:100EE000F8B504460D46FFF7B3FE002385420646DB
:100EF000236011D3EB1E83420ED20335ADB2FFF750
:100F0000A4FE8542FBD3FFF7A0FE8542FBD8D4E9BF
:100F1000033098470020F8BDFFF7B0FB6368074631
:100F20000BB9A36813B12046FFF784FF1C4BB542F1
:100F30001A681B6838BF0132A260A26865609A42D5
:100F400005D8184B1A682B0C1B049A4206D0204671
:100F5000FFF794FE3846FFF799FBDBE7B6B2B542E0
:100F60000FD9114B19461A6812B15068854214D234
:100F700022601C600B689C42ECD1A81FFFF774FE36
:100F8000E8E70A4A136813B159688D4202D2236018
:100F90001460DFE71A461B68F5E713461268E3E7BB
:100FA000F8080020FC08002008090020040900209F
:100FB00038B50446FFF762FB636805460BB9A368C2
:100FC00013B12046FFF736FF2846BDE83840FFF74B
:100FD0005DBBC36870B504460D46CBB1FFF7E8FFB3
:100FE000022D0DD8FFF731FE0646FFF72EFE801BBF
:100FF00080B28542F9D8D4E90330BDE87040184783
:10100000FFF726FE29182046BDE87040FFF768BFAD
:1010100070BD00002DE9F04704460E4615461AB98A
:10102000BDE8F047FFF7D5BFFFF728FB6368074629
:101030000BB9A36813B12046FFF7FCFEDFF830A020
:10104000FFF706FEDAF800808146FFF701FE8145D2
:10105000F6D83618454428BF013520466660A5609D
:10106000FFF70CFE3846BDE8F047FFF70FBB00BFA7
:10107000F808002008B500F023FABDE80840012177
:101080000148FFF729BC00BF000402407047000080
:1010900008B50F4B0C461A689AB9012203281A604A
:1010A00003D171460B4812F039FB21460A4812F071
:1010B00035FB00F091F9094812F030FB084812F0B6
:1010C0002DFBFFF7DBFAFFF7E1FFFFF7FBFB00BFAC
:1010D0000C090020FE5A0108025B01082A5B010886
:1010E0001E5B010808B500F0F7FD00F0EDFD0020E3
:1010F00008BD08B500F02CF9FCE700001FB500247E
:10110000FFF7BCFA0D4B0F221B684FF4807102935E
:101110000B4B019400930B480C2300F03BF80A4B57
:1011200007221B684FF44061CDE90143074B084893
:1011300000930C2300F02EF8FFF72AF91802002084
:10114000F3100008100900201C020020E510000820
:10115000100A002038B50B79082B03D90849032061
:10116000FFF796FF4C7901F10802036813B98B6011
:10117000026038BD13F8035CAC42F8D31846F4E7BC
:10118000EC5A0108031F53F8042F9A42FBD0181A97
:10119000704700000F2A2DE9F74F05468B46914610
:1011A0009A4633D810F003030FBF0B46C3F1040374
:1011B000ED18CB1A303B23F003031AF0080F05EBB0
:1011C000030419D12D6003E012600432A242FBD364
:1011D0000193FFF753FA012280462749019B51F8FA
:1011E000226017B2AEB10132212AF8D14046FFF792
:1011F0004DFA6FF08A073BE02A46E7E701212046D7
:10120000FFF704F84046FFF741FA31E06FF01507A9
:101210002EE041F822402A46DDE90C01E780FFF785
:101220006BF80E9B154AA3624FF0FF33C4E90736F3
:1012300013681AF0010F03F1010320606562C4F81E
:101240002CB084F805902671C4E90266C4E90466EE
:10125000A6611360D2D10A212046FEF7D7FF1AF00B
:10126000040FCFD14046FFF711FA4846FFF70EF8BA
:10127000384603B0BDE8F08F4C0700200807002077
:101280000C4B0D4A10B59A60102200210B4C83F8CC
:101290002220DA7760180131392980F80023F9D14A
:1012A0001A6942F010021A615A6942F400725A61D6
:1012B00010BD00BF00ED00E00000000800E100E00C
:1012C0000C4B9A6A42F400429A62EFF3138171B6B2
:1012D0005A6942F480725A610278986A5A6922F413
:1012E00080725A6181F3138880F40040C0F3C030EB
:1012F000704700BF00ED00E0F8B505460F46164602
:1013000004463C442046FFF7DBFF631B08B19E42C6
:10131000F7D81846F8BD38B5054600F0B0FC0446CD
:1013200005F1100000F010FD204638BDF8B5044668
:101330000D46164600F1100732462946204600F0B9
:1013400089FC00B1F8BD0121384600F0CDFCF3E77F
:1013500073B504240D4D02AA296842F8041D631ECA
:10136000995C11B91C46002BF9D1FFF787F92B685E
:10137000019A06469A4202D160B2FFF78FF93046D1
:1013800002B0BDE87040FFF781B900BF2002002025
:1013900010B50446FFF772F9054A135DFF2B1FBF16
:1013A000135D0133DBB21355BDE81040FFF76EB992
:1013B0002002002010B50446FFF760F9054A135DCE
:1013C0001BB1135D013BDBB21355BDE81040FFF7C5
:1013D0005DB900BF200200202DE9F04F2D4B8BB0EE
:1013E0001B882D4A2D492E48ADF8243012F096F96D
:1013F000FEF7B4FF0546FEF7C7FF0446FEF7C0FF41
:101400002A46009023464FF40071264812F086F9D0
:1014100001264FF40077DFF89C90DFF89CA0DFF8FE
:101420009CB025EAE57559F826401CB394F8048071
:10143000E26A5AF82830606A079317440692FFF769
:10144000A1FE069AB4F90610101A22680544059206
:10145000626A079BCDE90302E26A5846029262790A
:10146000019209AAB8F1080FC8BF01320092A26A1E
:1014700012F054F90136212ED5D10B4BCDE901756F
:1014800000930A4A19460A4812F048F90BB0BDE821
:10149000F08F00BF365B010836820108385B010817
:1014A0003D5B0108855B01080B5C01080D5C0108D0
:1014B000115C01084C070020305C0108CF5B01087B
:1014C000F8B5FFF7DDFE4FF08051002000F0FAF88C
:1014D00000F028F8104BFF210220DD694FF0FF37A4
:1014E00000F0F0F80D4C0E4EEDB22046FFF7E8FE8E
:1014F00020B1276004F58064B442F6D1064B022087
:10150000D96921F0FF01294300F0DCF800F0CAFBA3
:10151000BDE8F84000F022B9003802400000024067
:1015200000200240554B13B51A68554C42F48072A6
:101530001A609A6822F47F5222F030029A609A6808
:1015400022F0EE429A609A6822F003029A601968CB
:101550004C4A0A4000211A60D9602268022A6DD0E4
:10156000B2F5003F1A6842F480321A606BD14349E9
:101570000A6823681A42FBD0434B1A6842F00402FF
:101580001A601A6842F001021A601A6842F00202F8
:101590001A609A691007FCD54FF08051002000F0C6
:1015A00091F83A4B1A6822F4C05242F400621A6071
:1015B0005A68D106FCD4314B9A6822F47F5222F04B
:1015C00030029A609A6822F47D029A602268B2F52D
:1015D000003F9A680CBF42F4050242F488029A6008
:1015E0001A6842F080721A601A689201FCD540F2C3
:1015F00001129B6826492068B0F5003F08BF1146DC
:1016000043F003021D4B9A609A6802F00C020C2A08
:10161000FAD11A681F4822EA01021A6009221E4BF9
:101620002C3040F8043C2368B3F5003F0CBF1B4945
:101630001B4902B0BDE8104012F0DEB91A6842F052
:1016400001021A6093E74FF4003242F210702260F8
:10165000019119682268114289D1019A01320192DF
:10166000019A8242F5DD1A6842F001021A601A6896
:1016700022F480321A600223236078E700380240A7
:1016800010160020FEFFFAEE003C02400070004001
:1016900000010100141600200048E801AF5C0108B9
:1016A000B75C0108014B986A704700BF1416002010
:1016B000024A034B1B5C906A584370471416002083
:1016C000BF5C010801280AD004D302280CD0BFF364
:1016D0004F8F7047074A536A19435162F7E7054A2B
:1016E000136A19431162F2E7024AD3691943D161BF
:1016F000EDE700BF00380240012809D002D30228DC
:101700000CD07047084A536A23EA010151627047BE
:10171000054A136A23EA010111627047024AD3693C
:1017200023EA0101D16170470038024001280CD042
:1017300004D302280CD04FF0FF307047064B5B6A91
:101740000B4214BF012000207047034B1B6AF7E7D0
:10175000014BDB69F4E700BF0038024073B54FF47A
:10176000A0324FF480614FF00050FFF7C5FD042513
:10177000484C4FF4002220604FF480614FF000602D
:101780002571FFF7B9FD4FF480732361E368A06012
:10179000B0FBF3F04FF480424FF40061E0603E484C
:1017A0002575FFF7A9FD4FF0802323624FF4004316
:1017B000A3842387394B2577A0611868FFF780FD44
:1017C0004FF4002200284FF480614FF0006014BFF6
:1017D00097266426FFF790FD800AB0F5807F4DD0F4
:1017E00010D8202844D005D8082822D010284FD05F
:1017F00078221FE080283DD0C0283DD04028F7D176
:10180000382217E0B0F5407F3CD007D8B0F5C07F54
:1018100036D0B0F5007FEBD145220BE0B0F5C06FBC
:1018200032D0B0F5006F31D0B0F5806FE0D14722F3
:1018300000E0332240F22943194D14212868009218
:10184000C0F30B0098420CBF164A174A334617489C
:1018500011F0F4FF2B68C3F30B03A3F21643212B03
:101860008EBF0023124AD35C84F84E3002B070BDA4
:101870003622DFE74222DDE75A22DBE74322D9E7BF
:101880004422D7E74622D5E74822D3E74922D1E7C9
:101890003422CFE71416002000000808007C004026
:1018A000002004E0E35C0108F35C01084E16002010
:1018B000C15C010838B5182343430D4AD5582C881C
:1018C000A4B2A20608D50B4BA98803EBC002C9B28B
:1018D00053F8303050689847230748BFAB88064B11
:1018E0001B681BB1BDE83840FEF756BD38BD00BFD0
:1018F000045D010864160020040700202DE9F04172
:10190000182545431D4E0C4606EB050898F8147043
:101910003846FFF7C7FEB0FBF4F0072808D8384672
:10192000D8F80410FFF7E8FE6FF00100BDE8F08181
:1019300073590F289A8922F400524FEA02424FEA63
:1019400012429A819989C2B20DD8083A41F40041F5
:1019500042F010029981D2B21A819A89002042F491
:1019600000529A81E2E7C1F30E0199814FF6F071BE
:1019700002F00F0201400A43EEE700BF045D0108D8
:10198000022810B50AD8182358430A4B0A441B589A
:10199000914207D11A885206FCD510BD0649032092
:1019A000FFF776FB11F8010B1C882406FCD580B2EA
:1019B0009880EDE7045D0108EC5A0108022808B59B
:1019C00003D907490320FFF763FB1822054B02FBED
:1019D0000030BDE808404168007DFFF773BE00BFDE
:1019E000EC5A0108045D010802282DE9F04705467C
:1019F0000F46904603D942490320FFF749FB1824BC
:101A0000DFF808A13F4A04FB00A4D4F8089042F88C
:101A1000308002EBC0025360217C4846FEF75CFF39
:101A2000E668617C3046FEF757FF3046FFF7A2F8C4
:101A3000E17C3046FEF7F2FFB8F1000F07D000213D
:101A40004846FEF749FFA17C4846FEF7E7FF2846D7
:101A5000FFF7B4FF18236B435AF803400023A38118
:101A60002382A3823B79012B02BFA38943F48053D5
:101A7000A3817B79012B2AD0022B31D0BB79022B99
:101A800032D0032B34D01BB9238A43F480532382F2
:101A900039682846FFF732FF70BB42F20803A38182
:101AA000B8F1000F11D01823012103FB05A56B7DB0
:101AB0005AB203F01F0301FA03F31349520941F824
:101AC0002230A38943F02403A381BDE8F087A389D2
:101AD00043F48063A381A38943F40073A381CDE71A
:101AE000A38943F48063F9E7238A43F44053CEE7A4
:101AF000238A43F40053CAE76FF00100E5E700BF13
:101B0000EC5A01086416002000E100E0045D0108C1
:101B100007B500910021ADF8041001218DF80610E1
:101B20006946FFF761FF03B05DF804FB0020FFF793
:101B3000C1BE0120FFF7BEBE0220FFF7BBBE000002
:101B4000032910B518DC0E4B00011C1818586368E7
:101B50001A4001F10C0300EB83035A600223028A4E
:101B600003FA01F109B222EA0103038283891943CE
:101B700089B28181002010BD4FF0FF30FBE700BF2C
:101B80004C5D0108024B00011B58586A704700BFAA
:101B90004C5D0108034B00011A58138843F0010300
:101BA000138070474C5D010870B50D460446F8B9C6
:101BB00011490120C1E900231021FFF783FD4FF6F1
:101BC000FF730E4E01203480B480F362FFF770FD86
:101BD000B0FBF5F001234FF00062013880B2308590
:101BE000B382074B20461A60FFF7D4FF204670BD32
:101BF0004FF0FF30FBE700BF7C16002000100140D3
:101C000000E100E02DE9F04100254FF002080E4C04
:101C10000E4F228AA689164008FA05F2324207D0F2
:101C2000A389294623EA0203A38178683B68984781
:101C30000135042DF0D1064B1B681BB1BDE8F04106
:101C4000FEF7AABBBDE8F081001001407C16002021
:101C50000407002070B514461CB18568C3689D4216
:101C600001D1101B70BD86680568731C83604368D2
:101C7000013C013B3340EB5C01F8013BECE7C268FF
:101C800030B584684368121B9A4208D0C268046861
:101C9000551CC5600020013B1340E15430BD4FF09E
:101CA000FF30FBE708B5002002F056FB012002F0F0
:101CB00053FB002001F0BAFE012001F0B7FEBDE8A1
:101CC000084001F0E3BF000008B5024800F0CAFB7D
:101CD000002008BD8416002008B501F049F8BDE8D1
:101CE0000840FFF7D7B8000070B504460D46FEF770
:101CF000C5FC236806463BB94FF0FF332360FEF76F
:101D0000C5FC0125284670BDC5B10E4B02211D68DA
:101D10002846FEF77BFA236801330AD105F1080350
:101D200023600023AB603046FEF7B0FCFEF734FBC7
:101D3000E7E729462046FFF70DFAF4E7FEF7A6FC91
:101D4000E0E700BF0007002070B50446FEF796FCF0
:101D5000256806461DB9BDE87040FEF797BC6B1CB0
:101D600002D100232360F6E7284650F808390A21FB
:101D70002360FEF74BFA236813B94FF0FF3323605B
:101D800015F8034C3046FEF781FC2046BDE8704054
:101D9000FEF77CBABFF34F8F0549064BCA6802F4C1
:101DA000E0621343CB60BFF34F8F00BFFDE700BF7E
:101DB00000ED00E00400FA0508B5044811F036FD16
:101DC0000021034802F0E0F9FFF7E4FFF9600108A1
:101DD000AD1007B008B5074811F028FD00F07AFCF7
:101DE00010B9054811F022FD044811F01FFD002034
:101DF00008BD00BF7C60010898600108BD60010853
:101E000000B5134889B011F011FD20220021684669
:101E100011F042F90F4B1048D3E9002111F07EFC7C
:101E20006A46002310210D4803F0B4F869460C48B7
:101E300011F074FC0B4B0C48196811F06FFC0B4B44
:101E40000B48D3E9002111F069FC09B05DF804FBEF
:101E500054610108A01700205F650108BC1700202D
:101E6000B06401089C1700207461010878170020F5
:101E70003564010808B5FFF7C3FF002008BD000066
:101E800008B500F02DFEBDE8084043F69821014852
:101E900001F00EB9A817002010B590B0044603A8B1
:101EA00000F0AEFB9DF8113033B902200A49FFF76C
:101EB00081FA0A4811F0BAFC0094094B032204216C
:101EC0000848FEF747FD28B9074810B0BDE81040A4
:101ED00011F0ACBC10B010BD745D01081D610108AB
:101EE000ED1E00080104024039610108F8B50746FB
:101EF00001F056F8194D04462B682BB103F164022A
:101F0000824201D9834220D91548FEF705FED8B197
:101F10002B68A34203D2E21AB2F57A7F04D8DB43DE
:101F20002344B3F57A7F0FD90E4B0F4EF3600F4B5E
:101F30001A785AB10E48FEF71DFE002333614FF4A4
:101F40007A71304601F0B4F82C60F8BD01224FF0F0
:101F5000FF301A70FEF70EFE3761F0E7841700209D
:101F600001040240F1220008CC1700208017002055
:101F70000004024030B5012885B006DC224811F08B
:101F800055FC0124204605B030BD4D681F49284648
:101F900011F006FD78B91E4811F048FC00F0D8FC9D
:101FA00020B11C4811F042FCFFF7F4FE1A4811F072
:101FB0003DFC0024E6E71949284611F0F1FC0446EF
:101FC00088B910220146684611F066F800F02AFD33
:101FD00023466A4600F0E2FC08B11148E2E71148E6
:101FE00011F024FCCEE71049284611F0D9FC044634
:101FF0000028DED10D4811F019FC204600F0ADFCA0
:102000000028D3D00A48CDE79A5D010820AB01082B
:10201000EF5D01080B5E01082C5E0108B15E01084E
:102020004A5E0108845E01084E7C0108B55E010825
:10203000E85E010808B500F09BFC012821D003D31D
:10204000022809D01B4803E01B4811F0EFFB1B4896
:10205000BDE8084011F0EABB194811F0E7FB194848
:1020600011F0E4FB00F0E8FC174B186000F0DAFC1C
:10207000164BC3E9000100F0CFFC154BC3E900018A
:1020800008BD144811F0D2FB134811F0CFFB1348E0
:1020900011F0CCFB0A4811F0C9FB0A4811F0C6FB4D
:1020A0000E4811F0C3FB0E4811F0C0FB0D4811F0B3
:1020B000BDFBE0E7BDB2010887610108D1610108FD
:1020C000F6610108686201089C170020781700205B
:1020D000A01700209F620108D3620108EEAA010840
:1020E000FA6201084A630108012808B523D11348A0
:1020F00011F09CFBFFF784FE114811F097FB00F0F4
:1021000037FC78B1022813D80E4B0F491B680F4AD1
:10211000D1E9000100F042FC50B10D4811F086FBFE
:10212000FFF738FE0B4BD3E9000100F06DFCF3E73D
:10213000094811F07BFB002008BD00BF5D6101086C
:102140006A6301089C17002078170020BC17002044
:102150008E630108A0170020AD6301080228F7B5BF
:1021600004DCFFF767FF012003B0F0BDD1E90154A3
:102170004A49284611F014FC20BB00F0F9FB012865
:1021800006461FD1002200232046CDE9002311F08E
:1021900019FC102803D0424811F048FBE3E732460F
:1021A0006946204602F0E0FE08B93E48F4E7DDE962
:1021B00000213D4811F0B2FA3C4BDDE90001C3E9D2
:1021C000000118E03A49284611F0EAFB0646E0B95A
:1021D000204611F0F7FB202801D03648DCE73246D4
:1021E0003549204602F0C0FE08B93448D4E72146FC
:1021F000334811F093FAFFF703FE324811F016FB53
:10220000314811F013FB0020AEE73049284611F0A9
:10221000C7FB0746E8B900F0ABFB0128064618D11A
:10222000204611F0CFFB0828014601D02848B3E72B
:1022300002AA42F8087D3346204602F067FE0028D5
:10224000D3D02146234811F069FA234B009A1A6033
:10225000D1E72249284611F0A3FBD8B900F088FB4A
:10226000C0B9002200232046CDE9002311F0AAFBCB
:10227000102801D01A488FE701226946204602F053
:1022800073FE002891D0DDE90021164811F046FACE
:10229000154B92E7154811F0C9FAACE7CC63010879
:1022A000D46301080864010830640108781700202D
:1022B0004B64010853640108BC1700208A640108BC
:1022C000AB6401088B650108C2650108BE640108A2
:1022D000C7640108FA6401089C1700200E65010814
:1022E000146501085A650108A017002073650108EC
:1022F00010B50446B0B14FF0FF30FEF746FC0E4873
:10230000FEF743FC00F056FF64210C4800F0D0FEBD
:1023100002200B49FFF74EF8A047BDE810400948DE
:1023200011F084BA0448FEF730FC074811F07EFA39
:10233000BDE8104003F068BE00040240A81700206A
:10234000665D01080D6701082B6701082DE9F04162
:10235000012500270446424E036801EB410186B087
:102360000E4401928DF80950D3F8148032462B4662
:102370008DF80A703B21C04723687219D3F8148086
:102380003A212B462046C0472368B21CD3F814805C
:102390003C212B462046C047236806AA02F80D7D43
:1023A0005E6936212B462046B04723680DF10A02AC
:1023B0005E6935212B462046B04723680DF10A029D
:1023C0005E6937212B462046B04723680DF109028C
:1023D0005E6933212B462046B04723680DF10A027F
:1023E0005E693D212B462046B04723680DF10A0265
:1023F0005E693E212B462046B0470E2306AA22F8EE
:102400000C3D236810215E6920460223B047082353
:1024100006AA22F80A3D236832215E6920462B462F
:10242000B04747F2305306AA42F8083D23683921E5
:102430005E6920462B46B047236806AA42F8047D11
:102440005E6938212B462046B047236839465D69CE
:10245000042320460DEB0302A84706B0BDE8F08137
:10246000855D010800B5A1B00446FEF729FA2049B0
:102470000320FEF79FFF02F0F5FCFEF70BFD00F0D6
:10248000FBFD00F09DFA18B91A4811F0CFF90AE0E7
:1024900000F0FCF9E8B9184811F0C8F9174811F034
:1024A000C5F900F0DBF900F063FA022813D903281C
:1024B0000AD1134811F0BAF924221249204610F02B
:1024C000C7FD204603F08AFB80226946204600F0C3
:1024D000F5FE0D48D9E730220C49204610F0B8FD32
:1024E0000B4802F0AFFCFFF7A5FDFFF789FCEBE717
:1024F0005C5D0108245F0108815F0108E95F010854
:1025000063600108240200203A600108E8650108C0
:1025100000040240F0B59BB0074615461E468847AA
:10252000044658B12E4811F081F92E48FEF722FBDF
:1025300041F2883000F082FCFFF72CFC684600F086
:102540005FF804A802F024FB18214FF4807002F019
:10255000FFF9204601F028FE042104462248FEF738
:10256000BBF9F8B1012C22D0384602F06DFA1F4BAE
:102570001F4843F69821C36000F09AFD062000F042
:102580007FFA40F6FF7000F08FFA00F0A9FA00F031
:102590009FFA1848184B43F69821C0E9033600F01B
:1025A00087FD11E01048FEF7B7FA0028DAD10021C4
:1025B000084601F0E9FD114811F038F9094802F028
:1025C00041FC084802F03EFC064802F03BFC0DA826
:1025D00000F016F89DF83B3003B9A8471BB0F0BDDA
:1025E000446701080004024001040240811E000803
:1025F000A817002088170020991E000862670108AC
:1026000070B504460646054D0FCD0FC40FCD0FC45F
:102610000FCD0FC42B683046236070BDE01700203B
:10262000014B9870704700BFE0170020014BD87134
:10263000704700BFE0170020014BD870704700BF03
:10264000E0170020014B1871704700BFE017002011
:10265000014B9871704700BFE0170020014B587183
:10266000704700BFE0170020014BD860704700BFE3
:10267000E017002070B504460E4602F097FA08B342
:10268000012204F01F039A400F4D6309043355F8EB
:10269000230066B10243204645F8232002F080FA69
:1026A000224601460948BDE8704011F037B820EADB
:1026B0000202204645F8232002F072FA2246014623
:1026C0000348F0E770BD00BFE0170020E268010892
:1026D0001A69010808B54FF4827303483421038056
:1026E00000F0B0F908BD00BFE017002070B5124837
:1026F00011F09CF80323114C00250126A37102233D
:102700002022294604F1100063716680257110F0C3
:10271000C3FC31467E20E571E56084F83060FFF748
:10272000A9FF074811F082F8FFF7D4FFBDE8704019
:10273000044811F07BB800BF75680108E01700205D
:10274000B5680108DC68010838B51E4C3421204604
:1027500000F088F9054620B91B4811F067F82846B3
:1027600038BD2378022B21D8184D0521284600F0CA
:1027700079F92B7883B1164811F058F86B78E3702B
:10278000AB7823712B79A370124811F04FF8FFF743
:10279000A1FF114811F04AF86378012B01D0FFF72F
:1027A000A5FF6578003518BF0125D8E7032BF3D1C5
:1027B0000A4811F03BF8012384F8303084F83130B6
:1027C000E2E700BFE0170020996701081418002015
:1027D000CB67010803680108DC680108316801085B
:1027E00010B50C46A42103F071FA031B584258415E
:1027F00010BD10B50C46082103F068FA031B5842BF
:10280000584110BD10B5074C0821204603F05EFA70
:102810001022A0602146002001F018F8003018BFF7
:10282000012010BDD018002010B50A4B0A4CA4217D
:10283000236001232046237103F048FAA822C4F83C
:10284000A40021460C2001F001F8003018BF01203F
:1028500010BD00BFBEBAFECA2018002010B5084C3B
:10286000A8222046002110F017FC064B002223600E
:1028700001232371044BBDE810401A70FFF7D4BF49
:1028800020180020BEBAFECAC818002030B5D5B046
:10289000A8220021684610F0FFFBA82269460C2000
:1028A00001F042F8002843D0009A224B9A4206D009
:1028B000214810F0BBFF0024204655B030BD2999B7
:1028C0006846FFF78DFF0446D0B9A4222AA90C2040
:1028D00001F02AF8A0B1A0212AA803F0F7F9529B31
:1028E000984203D0154810F0A1FFE5E7144810F016
:1028F0009DFFA8226946134810F0AAFBFFF794FF3A
:10290000A82269460F4810F0A3FB002211460E4B87
:102910000C4C187865182D7C0DB101221046013140
:102920001029F7D102B118700124084B1C70C3E7BD
:102930000446C1E7BEBAFECA5369010862690108CC
:102940006F69010820180020E1180020C818002035
:1029500008B501F03BF8012008BD08B528B94FF4CF
:1029600096614FF4807001F039F8012008BD000035
:10297000074B187850B1074B1B7833B1064B1B78C7
:10298000002B0CBF0220032070470120704700BFBE
:10299000E0180020C8180020E118002038B51546BE
:1029A0001022064CC4E902012946A018C4F8A03040
:1029B00010F04EFBBDE83840FFF736BF201800206E
:1029C0001FB510226946002000F0AEFFA0B10299A9
:1029D0006846FFF70EFF044628B9084810F026FFA6
:1029E000204604B010BD10226946054810F030FBA7
:1029F0000122044B1A70F3E70446F1E792690108DB
:102A0000D0180020E0180020024BC3E90001FFF7B6
:102A1000F9BE00BFD0180020014BD3E90001704778
:102A2000D0180020014BD3E9020170472018002084
:102A30000048704730180020014BD3F8A0007047C1
:102A400020180020802908B50A4607D80146044806
:102A500010F0FEFABDE80840FFF7E6BE002008BD12
:102A600040180020802908B50A4604D8034910F010
:102A7000EFFA012008BD0020FCE700BF401800204D
:102A8000062808B503D906490320FEF701FB45F2E5
:102A90005552044B1A60002258601A6008BD00BFEE
:102AA000EC5A010800300040B0F5805F08B503D350
:102AB00005490320FEF7ECFA45F25552034B1A6024
:102AC000002298601A6008BDEC5A010800300040EE
:102AD0004CF6CC42014B1A60704700BF00300040FA
:102AE0004AF6AA22014B1A60704700BF003000402E
:102AF0000022134600FA02F103321E2A43EA0103C0
:102B0000F8D1034AD365D36013615361704700BFA6
:102B10000024014008B54FF400710120FEF7ECFDE0
:102B2000064B1B7823B9064A136823F00103136090
:102B30000448BDE80840FFF707B900BF480200207D
:102B400000380240E418002008B501210D48FFF7C5
:102B5000CBF80D4B1A68D2070DD41A6812F0020296
:102B6000FBD10A490A701A6842F001021A60064A4B
:102B700013689B07FCD5BDE808404FF400710120A5
:102B8000FEF7A0BDE41800200038024048020020F3
:102B9000082870B506463ED8204CFFF7D5FF54F8FC
:102BA0003600451C01D0FDF75DFF1D4D6A6822F41B
:102BB00040326A606A6842F480326A606A6802F48D
:102BC0004032B2F5803F19D0B2F5003F18D1022053
:102BD000FFF78EFF0122134B04EBC6049A604FF4FB
:102BE00000325A602379103B012B0BD90D4A136830
:102BF0005B06FCD5FFF78EFF002070BD0420E7E7E1
:102C00000520E5E76B68084A43F400036B605368EE
:102C10001907FCD5EAE74FF0FF30EEE7AC69010891
:102C200000270140002401400070004038B531F019
:102C3000407304460D4640F08B80FFF785FF464BFE
:102C400005F04072596845480A435A601A6B00EB18
:102C5000C40022F470021A6302791A641968CC0560
:102C6000FCD4996841F0804199603B4B1968880712
:102C7000FCD59C6D1968112A21F01001196024D12E
:102C8000374B93F84E30022B8ABF364B4FF4D1624C
:102C90001A88B5F1007F16D0B5F1407F04D0B5F1A8
:102CA000807F02D1A40000E0A40140F6B833534372
:102CB00093FBF4F42C4A536823F400035360FFF7AA
:102CC00029FF204638BD2401EFE7102AF2D1112256
:102CD0001A64214B1A461968C905FCD5996841F058
:102CE0008041996013689B07FCD5936D116821F0B2
:102CF000100111601A4A92F84E20022A11D91B4A7B
:102D000018481188043212880088B5F1007F1CD061
:102D1000B5F1407F0CD0B5F1807F0BD1A4009B00B2
:102D200008E04FF456724FF42A7140F28760ECE7E6
:102D3000A4019B01604390FBF3F05024401A6043D0
:102D4000541A90FBF4F41E34B4E724011B01F1E79C
:102D50004FF0FF34B5E700BF00240140AC69010823
:102D600014160020F800F81F00270140FA00F81F91
:102D700007B504210DEB010004F058FA019800F0AA
:102D800027F803B05DF804FB884270B5064603D30C
:102D90000E490320FEF77CF90D1A284602F09CFF2D
:102DA0006B1E2B42C0B209D101248440013C00F0CB
:102DB00015F820408542FAD9304470BD1E2801D84C
:102DC0000130F1E74FF0FF34F1E700BFEC5A0108A2
:102DD0000146014801F04CBDE8180020134970B5C8
:102DE000D1E901460A6884EA0603C86822F0004275
:102DF0005A4082EA420280EA500050400D6940F396
:102E000000031D4075404D604D6982EA80222B40D1
:102E100053400C608B6004EB13238C69C8605840EE
:102E200043F300032340584070BD00BFE818002062
:102E3000FEF78ABFB0F9001003F064B810B586B091
:102E40000446FDF726FC88B9094B00900290012149
:102E500068460493CDF814D0FEF746FF214601A83A
:102E600000F026F901216846FEF73EFF06B010BDCE
:102E7000312E000830B4034DC0E9035230BC13803A
:102E800000F016B9352E0008074B10B41A6842B985
:102E9000064B0749B0FBF3F403FB140010BC01F030
:102EA00095B810BC704700BF0419002000840C24A2
:102EB000B12F00080020F0B51D4E1E4D33680746A7
:102EC000013333601C4BB4461A6818602B681B4CE6
:102ED0001946226021B1DCF800E08E68764513D9EE
:102EE00000B129607FB100213960FAB183B1516826
:102EF000586881428CBF19461146084612681B6803
:102F000042B903602160F0BD0F4601200968E1E786
:102F10001146F2E70BB90260F4E755685E68B54206
:102F20008CBF1D46154605602846E7E72360EAE7A3
:102F3000081900200C190020101900201419002075
:102F4000134A136883420ED11B68136013B158688B
:102F5000FFF79ABF0F48FBE79842196801D111604B
:102F600070471A460B46002BF6D10B4A13681BB963
:102F70000A4A136833B9704798421968EFD01A4665
:102F80000B46F4E798421968E9D01A460B46F1E778
:102F90001419002000840C24101900200C190020A2
:102FA00007B501A801F090F8019803B05DF804FBA3
:102FB0002DE9F84301232D4D2D4F2C683B6074B94A
:102FC000FFF778FF4FF000082A4E2B685BB9FFF738
:102FD000E7FF84422CD9FFF76DFF0024F5E7FFF7E8
:102FE000DFFF0446EEE7D3F80490FFF7D9FF8442F1
:102FF00008D8B9FBF6F306FB1393834202D91B1AD8
:10300000032BE4D82B68D3F80490FFF7C9FF844260
:1030100005D8B9FBF6F306FB13938342F2D82B686D
:103020001A68C3E901882A60D3E903209047CCE7F6
:103030002B686BB1D3F80490FFF7B2FF04308145E1
:10304000C3D3002348463B60BDE8F843FFF71CBFED
:10305000FFF7A6FF8442BED8021DB2FBF6F306FBC3
:1030600013239842B7D8DFF80C90EAE71419002030
:103070000419002000840C2408B500F007FEBDE808
:1030800008400148FFF700BF00840C2438B504460F
:10309000FDF7F4FA636805460BB9A36813B120463F
:1030A000FFF74EFF2846BDE83840FDF7EFBA0000B5
:1030B000C3682DE9F04104460D46002B6BD0FFF7A5
:1030C000E5FF032D04D8D4E90330BDE8F0411847EB
:1030D000FFF766FF314B05449D4282BF05F15C4519
:1030E000A5F54825A5F57F75FFF75AFF0023854212
:1030F0000746236002D32B1F9842E4D8FDF7BEFA9F
:10310000636806460BB9A36813B12046FFF718FFA2
:10311000234BBD421A681B6838BF0132A260A16808
:103120006560994213D91F4A136833B19868814288
:103130000AD802D15868854206D22360146030460E
:10314000BDE8F041FDF7A2BA1A461B68EDE7164A42
:10315000B7FBF2F302FB1377BD420FD9134B1946AD
:103160001A6812B15068854212D222601C600B6846
:103170009C42E4D12846FFF787FEE0E70C4A13683B
:10318000002BDAD059688D42D7D31A461B68F7E76F
:1031900013461268E5E7BDE8F08100BFFB830C240D
:1031A000081900200C19002000840C241419002098
:1031B0001019002000210D4B1A6872B901B11A6074
:1031C00000210B4B1A685AB901B11A600021094B52
:1031D0001A6842B901B11A60704712680121ECE720
:1031E00012680121EFE712680121F2E714190020AB
:1031F000101900200C1900202DE9F341D0E90087B7
:1032000005468668846901A800F05EFF2846124DD5
:1032100000F08CFD2A68B2B13C234FF4616103FBDE
:10322000078301FB06330D49506801FB04334FF45B
:103230007A745C43019BC01A2044FFF725FE019A73
:103240002B68A41A13B902B0BDE8F0815A68224471
:103250005A601B68F6E700BF141900208051010076
:1032600038B50D46044638B1206828B1294610F01B
:1032700097FB70B10C34F7E7074C14B9002038BD48
:103280000C3420680028F9D0294610F089FB00286A
:10329000F6D1A068F3E700BF786A010808B53E20C0
:1032A00010F054FA202010F051FA034B1B68986874
:1032B000BDE808400FF092BCBC04002005460C4657
:1032C00016462DE9804883B000AFFFF7E7FFA04620
:1032D0004FF0000B06F1FF3AA8EB04035345F4DA74
:1032E0000FF074FD031EF0DB0D2B01D00A2B1FD154
:1032F0004FF0000A0D2088F800A010F027FA0A20ED
:1033000010F024FA4445E0D0214653465246D446B4
:103310000878202832D9222801D027283BD191F8DB
:1033200001E0BEF1000F1DD16A4810F07FFACCE732
:10333000082B01D07F2B10D14445CDD008F801BC1B
:10334000082010F003FA202010F000FA082008F1FD
:10335000FF3910F0FBF9C846BEE708F1010988F80B
:103360000030F6E7BEF15C0F0DD0013191F800E0BE
:103370008645D4D148782028D6D801320878E8B1DB
:1033800001F801CBC4E791F802E0BEF1000FCBD009
:1033900001330231EAE791F800E04878BEF15C0FB2
:1033A0000AD101330028BFD0481C411C4078222894
:1033B000BAD02028EFD8E0E70846F6E7002A84D004
:1033C00091000E3121F00701EA46ADEB010DEB460D
:1033D000A4464BF822009CF800E061460CF1010C79
:1033E000BEF1000FF7D0BEF1220F02D0BEF1270FC1
:1033F00000D101314BF820108C469CF800E00131DF
:10340000BEF1000FF8D101309042E4D1ABF1040CD1
:1034100013B15CF8041FB9B9DBF8001028467A60D4
:10342000FFF71EFF0346D8B17A6859461046984701
:10343000D5464AE7BEF15C0F06D190F800E0BEF138
:10344000000F08D1013BE7D0084611F801EBBEF1AF
:10345000000FEFD1DCE790F801E000F801EBECE7BA
:10346000DBF800101C4810F09BFA60BB1B4A1C499B
:103470001C4810F053F91C4810F0D8F97DB1194BD5
:1034800005F10C0B0BF10C0B5BF8181C39B118464D
:103490005BF8142C7B6010F041F97B68F2E7134B6A
:1034A000002BC5D003F10C0B0E4B0BF10C0B5BF892
:1034B000181C0029BCD018465BF8142C7B6010F057
:1034C0002DF97B68F1E7DBF80010094810F026F9C8
:1034D000AEE700BFF46901080D6A0108126A01082D
:1034E0001E6A0108266A0108306A0108786A010824
:1034F000586A010808B502F087FD002008BD08B52C
:10350000FDF76AFF002008BD012838B511D10C4D28
:1035100000202C68FEF736FB2B689C42F8D1044350
:103520002146084810F0FAF82046FFF751FC002029
:1035300038BD48680FF090FA044601460248F1E7AA
:10354000FC080020766B01089C6B010808B5FFF7AA
:1035500045FC0146024810F0E1F8002008BD00BF1C
:10356000E48801081FB5D0E9042103680132029301
:10357000436801F26C71019383680093C368034848
:1035800010F0CCF8002005B05DF804FBCD6B01080D
:10359000014810F04BB900BFBE6B010808B50E48DA
:1035A00010F044F90D4810F041F90D4810F03EF9C3
:1035B0000C4810F03BF90C4810F038F90B4810F0AB
:1035C00035F90B4810F032F90A4810F02FF90A4883
:1035D00010F02CF9002008BDB86C0108D96C010866
:1035E000E36C0108046D0108266D01084F6D0108A8
:1035F000786D0108BD6D0108DE6D010837B50C4618
:10360000054601A90A22006810F098FA00B2A0F25B
:103610006C706061019801A90A22013010F08EFAE5
:1036200000B201382061019801A90A22013010F08E
:1036300085FA00B2E06001A90A22686810F07EFAFB
:1036400000B2A060019801A90A22013010F076FAB8
:1036500000B26060019801A90A22013010F06EFAF0
:1036600000B22060D4E9040202F26C720128D8BFD3
:10367000013A04236FF0630192FBF3F392FBF1F143
:1036800013440B444FF4C87192FBF1F21344094AFE
:1036900052F8202000201344E2681344072293FBD1
:1036A000F2F2C2EBC2029B1AA3614FF0FF33236216
:1036B00003B030BD146E010870B501288AB006460B
:1036C0000D4603DCFFF76AFF012408E007223A49B0
:1036D000686810F07FF9044620B900F075FD2046B7
:1036E0000AB070BD08223549686810F073F90446C5
:1036F00010B900F075FDF2E708223149686810F052
:1037000069F9044610B900F0EFFBE8E708222D49FB
:10371000686810F05FF9044658B901A800F0A0FBF2
:1037200018B901A8FFF71EFFD9E7274810F07EF867
:10373000D5E708222549686810F04CF9044688B995
:10374000042E0FD101A905F10800FFF757FF00284B
:10375000C5D122461E4901A800F0D8FB0130BED1D8
:103760001C48E3E707221C49686810F033F9044657
:1037700030B901A800F02EFB0028D2D01748D5E7B9
:1037800007221749686810F025F9044678B9042E15
:103790000DD101A905F10800FFF730FF00289ED1E7
:1037A00001A800F0C3FA013099D10E48BEE769685C
:1037B0000D480FF0B3FF85E7EC6B0108F46B0108CF
:1037C000FD6B0108086C0108116C01082A6C0108E6
:1037D00091350008336C01084C6C0108546C0108E9
:1037E0006C6C0108746C01088C6C0108084B10B5F6
:1037F0009B690446043B834203D206490320FDF73C
:1038000047FC00F0E5FF044B1B68E05810BD00BF0B
:1038100014160020EC5A01084C02002038B5084B61
:1038200004469B690D46043B834203D205490320AD
:10383000FDF72EFC00F0CCFF034B1B68E55038BDB4
:1038400014160020EC5A01084C020020334B2DE9DD
:10385000F0479B69154682189A4206460F4603D9DF
:103860002F490320FDF714FC00F096FF16F0030427
:1038700018D0A6EB040AC4F104085046FFF7B6FFBF
:10388000A84528BFA846274B4246186099461819F4
:10389000394657B30FF0DCFBD9F800105046FFF75C
:1038A000BDFF44462D1B05F00308DFF878A025F086
:1038B00003052544A5421BD1B8F1000F10D02644C2
:1038C0003046FFF793FF174D424628600FB3391972
:1038D00028460FF0BDFB29683046FFF79FFF4444A0
:1038E00000F06AFF2046BDE8F0870FF0D5FBD3E774
:1038F00004EB06095FB1391904220A480FF0A8FB4E
:10390000DAF800104846FFF789FF0434D2E7394659
:10391000F8E7394628460FF0BFFBDCE71416002015
:10392000EC5A0108181900202DE9F843244B1446DD
:103930009B6982189A420646884603D9214903208A
:10394000FDF7A6FB00F028FF16F003050FD0C5F128
:103950000407701BFFF74AFFA74228BF27461A49F2
:103960003A460860294440460FF072FB3D46641B0E
:1039700004F00307DFF8509024F003042C44A54220
:1039800010D157B13019FFF731FF0F493A4608609F
:1039900008EB04000FF05CFB3C4400F00DFF2046F8
:1039A000BDE8F883A819FFF721FF0422C9F8000039
:1039B000054908EB05000FF04BFB0435DFE700BFBE
:1039C00014160020EC5A0108181900200021024B9F
:1039D00008469A69FFF73ABF141600200A460021EC
:1039E000FFF734BFF8B5104C012104EB40146768B1
:1039F0003846FCF771FFA66800213046FCF76CFFE3
:103A0000E56801212846FCF767FF247D38462146FA
:103A1000FDF704F821463046FDF700F82146284618
:103A2000BDE8F840FCF7FABF446E0108012870B504
:103A3000044603D90A490320FDF72AFB0025094B58
:103A4000094E43F820506401FFF7CCFF3319996900
:103A5000187FFDF737FE33591D809D839D8070BD13
:103A6000EC5A01081C190020446E0108012838B5E1
:103A70000C4624D84A1C25D021F0FF0313F5807F83
:103A800002D111F0FF0F1DD114F5807F0FD10F4C23
:103A900004EB401425696B1C14D001212846FCF767
:103AA0001BFF217D2846FCF7B9FF002038BD01210E
:103AB0002046FCF711FF2046FDF75CF8F5E74FF0D4
:103AC000FF30F3E76FF00100F0E700BF446E01083C
:103AD0002DE9F843074617489846DFF860901446EA
:103AE0000E4600EB870001217F01FEF7FDF809EB90
:103AF00007031D7F99692846FDF7E4FD0E4A05EB93
:103B00008505154415F8082059F8071044F00404F9
:103B100044EAC20416F5807F0C8015BF0B888B88A1
:103B200043F4407343F0040314BF0B808B800020E8
:103B3000BDE8F8831C190020846E0108446E01085A
:103B4000074A4301D25800231380938823F00403CB
:103B50001B041B0C9380034B03EB8000FEF7F4B8AF
:103B6000446E01081C1900202DE9F8430F46DDE9D9
:103B7000086891461D4623B91EB933490320FDF755
:103B800087FA324B40011C5817F5807F238843F099
:103B90004003238004D07B1C02D03846FCF7F5FF9D
:103BA000002E2FD1A844454523D123899907FCD560
:103BB00023891A06FCD42389DB0721D4238999079A
:103BC000FCD523891A06FCD4B9F1000F3AD17B1C2D
:103BD00038D0238817F5807F23F040034FEA034352
:103BE0004FEA134323802DD03846BDE8F843FCF755
:103BF000C1BF23899807FCD515F8013B2373D2E791
:103C0000A389D8E7E5B93046B0444045D6D02389EA
:103C10009E07FCD525732389D907FCD5237B00F8A3
:103C2000013BF2E722899207FCD5EA5C22732289E4
:103C3000D007FCD5227BF25401339845F2D1BDE781
:103C40000023FAE7BDE8F883EC5A0108446E010846
:103C50000023092804DC40EA031088401040704724
:103C600001330A38F5E7104020FA01F10A200B1160
:103C700001F00F0100FB031070470000CA22024B45
:103C80005A6253225A6270470028004008B503F078
:103C90000BFB03F0F9FA204B5A6B22F440325A63C3
:103CA0005A6B42F482025A63FFF7E8FF1B4BDA6853
:103CB00042F08002DA60DA685106FCD500229A6090
:103CC0008022DA60164A1A619A6822F040029A60ED
:103CD0009A6822F400629A60DA6822F08002DA6060
:103CE0000E4BDA685206FCD4FF225A620D4BDA689A
:103CF00022F40032DA609A6842F400329A601A685C
:103D000042F400321A605A6942F400325A614FF4A8
:103D10000072054B5A6008BD003802400028004080
:103D2000FF0F07000004014000E100E070B5284CDF
:103D30000546FFF7A3FFE36843F08003E360E36811
:103D40005806FCD5642368694FF47F0290FBF3F6B4
:103D5000102103FB1600FFF77BFF4FF4F8520646D5
:103D600008212869FFF774FF4FF4604206430D21D4
:103D7000A869FFF76DFF3F2206430021E868FFF7BF
:103D800067FF304360604FF47C12A8681021FFF792
:103D90005FFF4FF4FE42064608216868FFF758FFB0
:103DA0007F22064300212868FFF752FF304320603E
:103DB000E36823F08003E360054B1A46D96849069F
:103DC000FCD4FF215962D3689B06FCD5002070BD4E
:103DD00000280040214B70B51D685E6804464FF412
:103DE0007F0210213046FFF73EFF643060614FF4E0
:103DF000F85208213046FFF736FF3F2220610021AC
:103E00003046FFF730FF4FF46042E0600D2130464E
:103E1000FFF729FF07280ABF0023A061A3614FF421
:103E20007C1210212846FFF71EFF6A02A06005D50C
:103E30000A4B9B685B0644BF0C30A0604FF4FE4207
:103E400008212846FFF70FFF7F22606000212846E7
:103E5000FFF709FF2060002070BD00BF0028004070
:103E6000204B70B55E6804464FF47F021021304647
:103E7000DD69FFF7F8FE643060614FF4F852082105
:103E80003046FFF7F0FE6B00206121D54FF4604211
:103E90000D212846FFF7E7FE0023072808BF002072
:103EA000E360A0614FF47C1210212846FFF7DBFE8F
:103EB0004FF4FE42A06008212846FFF7D4FE7F227F
:103EC000606000212846FFF7CEFE2060002070BD14
:103ED0004FF07C5218212846FFF7C5FE0723E0600B
:103EE000A361DFE700280040064B9A6822F488525D
:103EF0009A60DA68D207FCD50022034B1A60DA60B8
:103F0000704700BF002800402419002070B5044607
:103F10001046FFF7B3FEFFF7E7FF2A4BE66819608C
:103F2000D86086BBA0694FF07C52002808BF0720EC
:103F30001821FFF78DFE4FF47C1205461021A06872
:103F4000FFF786FE4FF4FE42054308216068FFF745
:103F50007FFE7F22054331462068FFF779FE1A4B2A
:103F60002843D861DA6942F08042DA61164B0020BA
:103F7000DA6822F48072DA609A6842F488529A60B1
:103F8000FF225A6270BD4FF07C5218213046FFF775
:103F90005FFE4FF47C1205461021A068FFF758FE23
:103FA0004FF4FE42054308216068FFF751FE7F226F
:103FB000054300212068FFF74BFE034B2843D861DF
:103FC000D4E700BF24190020002800402DE9F74F56
:103FD000154607460E46FFF751FE374B9A6822F406
:103FE00008529A60DA689207FCD54FF47A744EF65C
:103FF000602B324B3248B7FBFBF2B7FBF0F0B7FB5C
:10400000F4F8B7FBF3F318214FF03C0B0BFB128ACB
:104010000BFB132B01FB1033002808BF07204FF0C8
:104020007C520193FFF714FE019B81464FF47C12F2
:1040300018461021FFF70CFE4FF4FE4249EA000932
:1040400008215846FFF704FE7F2249EA00090021B3
:104050005046FFF7FDFDF42104FB18777C43B4FBC9
:10406000F1F4154B49EA000018621A6AC4F57F643E
:1040700042F080421A629A6C0F3422F4FF4222F01E
:104080007F0242F00062E4B214439C649A6800200C
:1040900042F400729A609A6842F400529A60DA68B8
:1040A00022F40072DA60074A56601561FF225A62F4
:1040B00003B0BDE8F08F00BF0028004080EE36005E
:1040C000005C2605241900202DE9F84305462C4BF9
:1040D000DA6822F02002DA60DA689106FCD56FF027
:1040E000F3044FF47A769A6A996A914218BF9A6AF1
:1040F000234B544304F5732404F60C74B4FBF6F616
:10410000DA6822F02002DA60DA689206FCD5D3F889
:1041100000801A680D21424518BFD3F80080184B63
:104120004FF460425868FFF79EFD4FF47C1204463E
:1041300010214046FFF797FD4FF4FE4281460821CB
:104140004046FFF790FD7F22074600214046FFF7DB
:104150008AFD4FF461633C22072C08BF002403FB57
:1041600009F302FB07370744064800FB04744FF4C9
:104170007A7000FB046400202C60BDE8F88300BF67
:1041800000280040805101000022064B82B00192BD
:104190000193019B03EB81010191019B1860104683
:1041A00002B0704750280040002382B00193054BB5
:1041B0000193019B03EB80000190019B186802B002
:1041C000704700BF5028004008B503F05DF8034A6F
:1041D000536B43F48003536308BD00BF00380240B3
:1041E00008B503F051F8044A536B23F4800353637A
:1041F000BDE8084003F050B80038024010B51F4C2D
:10420000E368D8050DD51E4A13680BB1D0689847EE
:10421000E3681C4A23F48073E360536943F400337A
:104220005361164CE36899050DD5154A53680BB1D7
:1042300010699847E368134A23F40073E3605369F5
:1042400043F4003353610D4BDA6852050DD5DA683B
:1042500022F48062DA600A4A93680BB15069984789
:10426000084A536943F480135361074B1B681BB121
:10427000BDE81040FCF790B810BD00BF002800401A
:1042800024190020000401400407002030B50C462A
:10429000631A9A4201DC002030BD14F8013B03820E
:1042A0004FF6FF73858A2D06F2D4858A05F4E06502
:1042B0001DB9013B9BB2002BF4D16FF07300EBE70B
:1042C0004FF6FF73828A52070AD4828A02F4E062B0
:1042D0001AB9013B9BB2002BF4D16FF07300704709
:1042E000038843F400730380002070474FF6FF7289
:1042F000038B13F0020306D0013A92B2002AF7D1E1
:104300006FF07300704718467047838A23F4E063A8
:104310001B041B0C8382038843F480730380838A0D
:10432000DB07FCD54FF6FF7342EA41020282828A24
:1043300092070ED4828A02F4E0621AB9013B9BB262
:10434000002BF4D1038843F4007303806FF0040062
:10435000704700207047000001282DE9F04103D983
:104360003D490320FCF794FE00223C4D47013C4BA5
:10437000EC5943F82020EB19002CF1D01A79012ACE
:104380005CD003D3022A5CD0BDE8F0819E6944F67C
:10439000206305EB0708D8F8141098F81200B6FB54
:1043A000F3F6FDF78FF998F81C2053B2002B4BDA87
:1043B0002C4902F00F0001441020087601213D44F1
:1043C00002F01F0201FA02F2D5F8088026495B09C3
:1043D00041F8232040461521FCF77EFAEF681521AD
:1043E0003846FCF779FA297C4046FCF717FB697CD4
:1043F0003846FCF713FB4FF48062AB6922801B4AFE
:10440000B6B2B3FBF2F39BB243F4807201339BB2BA
:10441000A280A6832384238943F4804323812389B4
:10442000C3F30E032381A38A23F4E0631B041B0C54
:10443000A382238843F001032380A5E79E690C4BE8
:10444000A7E79E690B4BA4E7102003F1604101F53B
:10445000614181F80003B1E7EC5A0108906E010850
:104460003C190020FCEC00E000E100E040420F00BD
:10447000400D030000350C00012810B5044603D997
:1044800009490320FCF704FE0848012100EB8400E1
:10449000FDF72AFC064800EB44104169807CFDF7DB
:1044A00011F9002010BD00BFEC5A01083C19002092
:1044B000906E0108012838B5044603D90D49032040
:1044C000FCF7E6FD00220C4B41015858058BAD0767
:1044D00003D50132B2F5803FF8D10B44987C59697D
:1044E000FDF70AF9054800EB8400FDF72DFC0020DC
:1044F00038BD00BFEC5A0108906E01083C1900203D
:10450000F8B5012816461F469DF8185003D93549BD
:104510000320FCF7BDFDEC0760D4334B40011C5871
:10452000002CF4D028071AD40122C9B22046FFF784
:10453000ECFE002832DB012F23880DD169070BD454
:1045400023F480631B041B0C2380A38A238B4FF668
:10455000FF7305F004012FE043F48063F4E7012FBB
:1045600009D115F0040006D1228822F480621204D9
:10457000120C2280EBE72388002043F48063238021
:10458000E5E7A28A52060AD4A28A013B02F4E0625D
:104590009BB20AB9002BF4D16FF07300F8BD013F54
:1045A000012F06D129B9228822F480621204120C4C
:1045B0002280228A06F8012B002FE2D16907EDD470
:1045C000238843F4007323804FF6FF7322889205FB
:1045D000E4D5013B9BB2002BF8D1DDE76FF05E0024
:1045E000DCE700BFEC5A0108906E01082DE9F047A6
:1045F000012805460E4692461F46DDF820809DF8AC
:10460000249003D925490320FCF742FD244A4301A5
:10461000D458002CF6D019F0030F3CD12046FFF7F8
:1046200065FE00281ADB19F0080211D0A38A238B3B
:104630004FF6FF73A28A110612D4A28A02F4E06236
:104640001AB9013B9BB2002BF4D16FF0730005E067
:10465000C9B22046FFF759FE0028E7DABDE8F08727
:104660004FF6FF73A4F810A0A28A120609D4A28AFA
:1046700002F4E062002AE8D1013B9BB2002BF3D1A7
:10468000E3E7CDF8209043463A4631462846BDE858
:10469000F047FFF735BF6FF05E00DFE7EC5A010827
:1046A000906E0108F8B5012816461F469DF818506F
:1046B00003D916490320FCF7EBFCEC0723D4144B79
:1046C00040011C58002CF4D02046FFF70FFE50B9D3
:1046D0002A0709D53A4631462046A38A238BFFF79D
:1046E000D5FD002808DAF8BD0246C9B22046FFF71A
:1046F0000CFE0028EEDAF6E76B07F4D42046BDE89E
:10470000F840FFF7DDBD6FF05E00ECE7EC5A010802
:10471000906E010873B501281E469DF81C50ADF837
:10472000062003D91A490320FCF7B2FC194B4001BB
:104730001C58002CF6D0A80726D12046FFF7D6FD3E
:1047400058B92A070BD501220DF106012046A38A8C
:10475000238BFFF79BFD002809DA02B070BD0246EB
:10476000C9B22046FFF7D1FD0028ECDAF5E7069A3A
:1047700031462046FFF78AFD0028EEDB6B07ECD4BC
:104780002046FFF79DFDE8E76FF05E00E5E700BF1C
:10479000EC5A0108906E0108044B5A68D20741BFD9
:1047A000034ADA60034ADA60704700BF003C024007
:1047B000EFCDAB8905040302044B5A68D2075EBFF4
:1047C0005A6842F001025A60704700BF003C024044
:1047D0000D4B9A69D1070BD59A69D207FCD40A4BC5
:1047E0009A69920742BF9A6922F002029A61704761
:1047F0009A69D005F3D59A6942F480729A619A69F0
:10480000D107FCD4EBE700BF003C0240036830B5A1
:10481000D0E90115C26881EA050423F00043634032
:1048200083EA430382EA52025A4042F3000483EAD5
:1048300082230160C26001694269214014406940DD
:1048400063404160836030BD036833F000430DD1A5
:1048500043685BB983684BB9C3683BB949235422A9
:104860004E21C0E900235923C0E90213704700001C
:1048700038B50125036904464360436901608360DC
:104880008369C3600E486B1E03F0030354F82330A2
:1048900005F0030183EA937300FB035354F82120CE
:1048A00001355340082D44F82130ECD12046FFF764
:1048B000CBFF2046FFF7AAFF013DFAD138BD00BF6C
:1048C0006589076C094A10B50021144613690BB1BC
:1048D00053690BB9184606E012F81C3B834203D11A
:1048E0001C2000FB014010BD0131EFE7086F0108FB
:1048F00038B518B915490320FCF7CAFB4B1E072B26
:1049000005D8DFE803F0161304170404041B022281
:10491000034691FBF2F201441C1AA24209DD1C7805
:1049200011F8015D03F8015B0C70F5E703885BBAD1
:10493000038038BD03681BBA0360FAE70368426866
:104940001BBA12BAC0E90023F3E700BFEC5A010812
:10495000024B1860024B1960704700BF64190020B9
:1049600068190020154BF7B51C68154D944204F1E9
:10497000020328BF14462D68013803FB0055224668
:1049800028460F46FEF7D0FFA042064602D0002080
:1049900003B0F0BD002302A921F8023D022228182D
:1049A000FEF7C2FF0228F2D13146384601F058F92D
:1049B000BDF806301B1A58425841E9E76819002033
:1049C00064190020134B73B51C680E4694421546BB
:1049D00002D2002002B070BD0F4B01381B680234B8
:1049E00004FB00341146304601F03AF92A46ADF88E
:1049F000060031462046FEF729FFA842E9D10222EF
:104A00000DF106012044FEF721FF831E5842584154
:104A1000E0E700BF681900206419002070B5054662
:104A20000E460EF005FB044650B1681E2044FCF70C
:104A300047FC054620B9314602480EF06FFE2C4671
:104A4000204670BDD06E01082DE9F0472C4907467D
:104A500010227E20FFF786FF294D014618B910224B
:104A600028460EF019FB4FF00109264CDFF8A08014
:104A7000DFF8A0A0D4F80F6056B9002213462249EF
:104A8000887A82421BD3CC7AA34235D3BDE8F08723
:104A9000D4F81330002BF0D014F8013C5A0958F820
:104AA000222003F01F0309FA03F3134205D0214625
:104AB00050460EF033FE3846B0471C34DAE7AC5CA3
:104AC00004B901330132DCE7013290420DD90021F3
:104AD00015F802C011F807E0E64504D0013188421C
:104AE000F8D8AE5401339C42EED81022BDE8F0470E
:104AF00003497E20FFF766BF0022044F1646E4E715
:104B00006C190020096F01088C1900207C19002005
:104B100044190020607301082DE9F04706460F464E
:104B20000025164CDFF85C80DFF85C90DFF85CA0B5
:104B3000D4F80F3013B1D4F813302BB9DDB9BDE878
:104B4000F0470F480EF072BE012114F8013C5A09DB
:104B500003F01F0056F822208140114007B141B1F7
:104B6000224600290CBF41464946504601350EF009
:104B7000D5FD1C34DCE7BDE8F08700BF096F0108F4
:104B800099730108DBBE010885730108877301086A
:104B90000146202201480EF05BBA00BF44190020F4
:104BA00008B5FFF78FFE00B1013008BD08B5FFF76B
:104BB00089FE003018BF012008BD000010B5044672
:104BC000FFF780FE60B10123620904F01F0403FABD
:104BD00004F4044B53F822301C4214BF012000207F
:104BE00010BD00BF4419002070B50C461546FFF7F4
:104BF00069FE30B1836923B129462046BDE8704083
:104C00001847002070BD70B506460C461546FFF7E4
:104C1000D5FF38B13046FFF755FE29464369204697
:104C2000984770BDFF20FCE7F0B400230C27094D26
:104C300007FB03F6741976593EB9C4E90001A26076
:104C40000146F0BC04480EF069BD0133132BEFD1CF
:104C5000F0BC704750020020C672010870B50646CD
:104C6000074D15F8014C14B94FF0FF3007E0294605
:104C700030460EF095FE1C350028F2D1204670BD5E
:104C8000096F01081F289ABF024B53F8200000202B
:104C9000704700BFE07201082020704700232DE913
:104CA000F0410F1E86B005461646CDE90333ADF838
:104CB0001430037003DA174903A80EF062FE164998
:104CC00003A80EF05EFE012400230A229E421DD896
:104CD0003346124A032102A80EF0B0FD02A903A830
:104CE0000EF04FFE97FBF4F630460DF0B1FE804615
:104CF00004FB16700DF0ACFE4346009003AA32216F
:104D000028460EF09BFD06B0BDE8F0815443013308
:104D1000DCE700BFDBBE0108FA6E0108006F010886
:104D20004B1E2DE9F00B072B3DD8DFE803F00411F3
:104D30003C1D3C3C3C2690F90020D411A318634054
:104D400022F07F0213430370BDE8F00BFFF7D0BDE4
:104D5000B0F90030DC13E21823F4FF43624023F083
:104D60007F0313430380EFE70268D417A31863405F
:104D700002F0004213430360E6E70024D0E900BCE0
:104D80004FEAEC7616EB0B0246EB0C0382EA0608C0
:104D900083EA06090CF0004548EA040249EA0503E3
:104DA000C0E90023D0E7BDE8F00B70472DE9F04BD8
:104DB0000D460446FFF79CFD691E072910D8DFE861
:104DC00001F004110F1D0F0F0F2894F90020D1B22C
:104DD00021F07F035B1A534003EAE27353402370D0
:104DE000BDE8F08BB4F9002091B201F400435B1AE6
:104DF000534003EAE27353402380F1E7216801F056
:104E00000043CA175B1A1340D2430A40134323607E
:104E1000E6E70020D4E90067821B07F000414FEA73
:104E2000E77B61EB070302EA0B0803EA0B0926EABA
:104E30000B0027EA0B0148EA000249EA0103C4E932
:104E40000023CDE738B5054604242846FBF7A9FE24
:104E50003220FDF7F3FF013CF7D12846BDE838408A
:104E6000FBF793BE70B5184C20460EF0DFFC1748D8
:104E70000EF0DCFC16480EF0D9FC16480EF0D6FCFD
:104E80002046154C0EF0D2FC144B154A1549164815
:104E90000EF044FC54F8041C144A2346B1FBF2F211
:104EA000134804F10E010EF039FC54F8143C54F888
:104EB000242C54F82C1C9B0A920A890A0D48BDE840
:104EC00070400EF02BBC00BFC4710108EE710108E8
:104ED0001872010837720108401600205972010843
:104EE000627201086E7201087372010840420F007D
:104EF000887201089F720108402802D83038C0B279
:104F00007047602894BF37385738F8E710B5CC079A
:104F100028D49BB9831C013A023313F8040C08B956
:104F2000012010BDFFF7E8FF014613F8030CFFF75F
:104F3000E3FF40EA011002F8010FEDE78B1E034486
:104F400002EB61018A42A3F10203E9D09878FFF7EE
:104F5000D3FF0446D878FFF7CFFF40EA041002F8E9
:104F6000010BEFE70020DCE72DE9F04104460E4697
:104F700017460EF027FD2044011B10F8015D0D2D92
:104F8000FAD00A2DF8D03B4632462046BDE8F04123
:104F9000FFF7BCBF10B4044610460A46214613B1C1
:104FA00010BC01F062B810BC01F04EB8002213B57D
:104FB000044602A941F8042D0EF0C0FD20460EF073
:104FC00001FD019B20441B1A5842584102B010BDFC
:104FD0002DE9F041DFF898801B4F1C4C1C480EF067
:104FE00025FC1C4D4246002138460EF097FB1A491D
:104FF00020460EF093FB28460EF090FB1749204602
:105000000EF08CFB164E28460EF088FB1549204604
:105010000EF084FB30460EF009FC08F1200201215D
:1050200038460EF07BFB104920460EF077FB2846F1
:105030000EF074FB0D4920460EF070FB30460EF06A
:10504000F5FB0020BDE8F0813A7B01089D84010852
:10505000247B0108447B0108A027BE33E034C13320
:10506000597A01082042C4335099C93390A6CC33F1
:10507000707B0108002208B5044B05481A700EF039
:10508000D5FBBDE808400348FFF7DCBE98190020B7
:10509000E87401080004024030B50328B5B00C469E
:1050A00024D07E480EF0C2FB7D480EF0BFFB684660
:1050B000FDF7A6FA9DF8073013B17A480EF0B6FB5B
:1050C00079480EF0B3FB012178480EF027FB7848B1
:1050D0000EF0ACFB77480EF0A9FB77480EF0A6FB6C
:1050E00076480EF0A3FB76480EF0A0FBD4E90154FD
:1050F000744928460EF054FC014678BB0A2220462B
:105100000EF01CFDC0B2062803D96F480EF08EFBCE
:1051100046E06E4B83F868006C4C94F86C00FDF729
:1051200085FA27A8FDF76CFA9DF8A33023B141F268
:10513000D453E058FDF798FA94F86900FDF77CFA2B
:1051400094F86800FDF77EFA94F86B00FDF780FA9A
:1051500094F86A00FDF782FA002022E05C492846B4
:105160000EF01EFC014610BB0A2220460EF0E6FCA3
:10517000C5B20DA8FDF744FA564C9DF8363004EB45
:1051800043139B7AAB420ED81AA8FDF739FA9DF863
:105190006A30514804EB4314A17A01390EF0BEFA8B
:1051A000012035B030BD494B83F86950B4E74B4915
:1051B00028460EF0F5FB014660B90A2220460EF0A3
:1051C000BDFCC0B2022802D901214548E6E7FDF73F
:1051D00027FAA1E7434928460EF0E2FB014638B919
:1051E0000A2220460EF0AAFC384B83F86B0093E7A6
:1051F0003D4928460EF0D4FB98B92278A2F141032C
:10520000022B01D9394881E7412A304B02D183F87A
:105210006A0081E7422A0CBF0122022283F86A2039
:105220007AE7334928460EF0BBFB40B92378274A7A
:10523000A3F131014B424B4182F86C306CE72C49B1
:1052400028460EF0ADFB40B92378A3F1310253425A
:1052500053411E4A82F86F305EE7284625490EF01A
:105260009FFB054600287FF457AF20460EF0AAFBAF
:105270000828014601D0204848E734AA42F8345DA6
:1052800001232046FFF742FE08B91C483EE741F2E1
:10529000D4530E4A2799D1503EE700BF2D7701081D
:1052A000467701084C770108A2770108ED770108DD
:1052B000157801084878010893780108F878010802
:1052C0001C790108E579010839790108A019002045
:1052D00039BA0108707B0108647901084178010836
:1052E00090790108BF79010816790108C77901088A
:1052F000DC790108E3790108E8790108217A0108DD
:1053000008B5024801F0F0FC002008BDA0190020FB
:1053100008B500210120FEF737FF08480EF086FA95
:10532000BFF34F8F0649074BCA6802F4E06213438C
:10533000CB60BFF34F8F00BFFDE700BF16770108BA
:1053400000ED00E00400FA0500B507488FB00EF04C
:105350006DFA01A8FDF754F905A80021FFF7DCFB61
:1053600000200FB05DF804FB5C760108F0B55D48E5
:10537000ADF5517D0EF05AFAFDF74EFB07460E468D
:10538000FDF750FB054668460C46FDF739F9564BCC
:10539000564A9DF807105648002914BF1146194671
:1053A0000EF0BCF90DA8FDF72BF99DF83B3033B991
:1053B000FDF73EFBC27B817B4E480EF0AFF91AA889
:1053C000FDF71EF99DF86F3033B1FDF735FB00F0A6
:1053D0000F0149480EF0A2F927A8FDF711F99DF831
:1053E000A33033B134A8FDF70BF9379943480EF0D9
:1053F00095F931463A4642480EF090F92A46214640
:1054000040480EF08BF941A8FDF7FAF83E4C9DF8A4
:1054100006113E4804EB41110EF080F94EA8FDF74D
:10542000EFF85BA89DF83B51FDF7EAF868A89DF8F6
:105430006E61FDF7E5F89DF8A331294603EBC6033D
:1054400004EB8304E26832480EF068F975A8FDF7B2
:10545000D7F89DF8D8112F480EF060F982A8FDF713
:10546000CFF8224D9DF838121F4C2B48002914BF4D
:10547000294621460EF052F98FA8FDF7C1F89DF894
:1054800044122648002914BF294621460EF046F949
:105490009CA8FDF7B5F89DF87532012B20D0A9A87E
:1054A000FDF7AEF89DF8A932022B14BF412143212C
:1054B0001B480EF033F9B6A8FDF7A2F89DF8DE12EE
:1054C00018480EF02BF918480EF0B0F9C3A8FDF7F4
:1054D00097F80121C7A8FFF71FFB0DF5517DF0BD1F
:1054E0004221E5E7447A0108417A01083D7A010842
:1054F0005B7A0108687A0108827A0108987A0108C3
:105500005F65010835640108707B0108A77A01080E
:10551000B47A0108C77A0108D67A0108E67A010848
:10552000F67A0108027B0108107B010808B5FFF735
:105530001DFF002008BD0000014801F089B800BF30
:10554000A019002010B586B006AC64E902010D4830
:105550000EF06CF920460DF06FFC0446D0E90421F2
:10556000036801320293436801F26C71019383680E
:105570000093C36804480EF0D1F82046FDF73CFEC6
:1055800006B010BD0F7D0108217D0108F0B507466A
:10559000ADF5037D40680DF05FFAC6B23046FFF707
:1055A00005FB20B9314626480EF0B8F80EE08422FB
:1055B000002101A80DF070FDB8680EF003FA10F09C
:1055C0000105044607D01F480EF030F9012420469B
:1055D0000DF5037DF0BDFD2802DD7E211A48E3E7CD
:1055E0002A460DF10501B868FFF7BEFC022394FBC3
:1055F000F3F48422294622A88DF80440ADF88450A3
:105600000DF04AFD22AA01A93046FFF7FCFA044634
:10561000FC22294643A80DF03FFD9DF888102B463B
:1056200043AA0DF18900FFF7B5FC43A924B107484F
:105630000EF074F82C46CAE705480EF06FF8C6E77E
:10564000B2750108DA750108F27501081E760108C5
:105650002E760108012808B504DDBDE8084008469B
:10566000FFF794BF02480EF0E1F8012008BD00BF2B
:10567000407601080228F8B50C4604DC20480EF0FC
:10568000D5F80120F8BD4868FFF790FC50B160687C
:105690000DF0E2F90028064608DA616819480EF0B4
:1056A0003DF8EEE76068FFF7D9FAF3E7C7B238468E
:1056B000FFF77CFA054610B931461348EFE7A068BA
:1056C000FFF774FC58B1A0680DF0C6F9051C18BFAF
:1056D000012538462946FCF7CDFF0020D2E70B49CB
:1056E000A0680EF05DF90028F3D00949A0680EF01B
:1056F00057F910B1A1680748D1E70546E9E700BFAF
:1057000072760108AE760108CD760108A776010809
:10571000F4760108FC76010830B50C460546BBB0AE
:105720006422002168460DF0B7FC00236A4621463A
:105730002846FFF72FFC694611480DF0EFFF11488E
:10574000FFF780FB012C18D92946013C11F8015BB9
:1057500022460DF165000DF07BFC41F20C730A4A04
:1057600019A9D35A284600228DF86440ADF8E430D8
:10577000FFF73AFA00203BB030BD0120FBE700BF45
:105780001D74010800040240A019002030B50C4629
:105790000546DFB06422002103A80DF07DFC002344
:1057A00003AA21462846FFF7F5FB03A922480DF07E
:1057B000B5FF2248FFF746FB012C3BD92946013CA7
:1057C00011F8015B22460DF171000DF041FC41F230
:1057D0000C731B4A0021D35A3DA88422ADF8F03047
:1057E0008DF870400DF058FC3DAA1CA92846FFF723
:1057F0000AFAFF2819D101238DF876314FF602738A
:105800008DF8F650ADF8F430012300219DF8F42016
:10581000CDE900310A480DF1F50100F043FE011E0B
:1058200005DA08480DF07AFF01E00028ECD10020ED
:105830005FB030BD0120FBE7AE73010800040240F9
:10584000A0190020CA73010830B5ADF5137D85A8F5
:10585000404CFCF7D5FE9DF8193278A884F86A30E0
:10586000FCF7CEFE9DF8E4316BA884F86830FCF7B5
:10587000C7FE9DF8AF315EA884F86930364DFCF75D
:10588000BFFE9DF87A3151A805EB43130C33236317
:10589000FCF7B6FE9DF8463105EB4315AB7A636322
:1058A000FDF7C0F8C4E90201FDF7B6F8C4E900014C
:1058B00044A8FCF7A5FE9DF8173137A884F86C3092
:1058C000FCF79EFE9DF8E330002B3AD0FDF7B4F8CC
:1058D00005462AA8FCF794FE04F148032D9A00938C
:1058E000002104F13803284601F082FB1DA8FCF7D3
:1058F00087FE41F2D453209AE250184B10A8A367B8
:10590000174B6367FCF77CFE9DF8703003A884F8A2
:105910006E30144BC4F88030FCF772FE9DF81230E4
:1059200084F86B30104BE367104BC4F88430104B95
:10593000C4F888300F4B1B68C4F88C300DF5137D0C
:1059400030BDFDF775F81022014604F158000DF046
:105950007FFBD2E7A0190020707B0108595A00088C
:1059600075500008255A00088D570008195700087F
:105970004555000808310020044A05481378772B64
:105980009CBF0133137000F027BE00BF98190020A0
:10599000A019002013B50023014611F8012B019333
:1059A00090F8823013480093012300F07BFD041E21
:1059B00016DA621D07D110480DF038FF21460F4856
:1059C0000DF0ACFE0CE0A31DF8D10D480DF02EFF3C
:1059D0000C4B1B7853B90C480DF028FFFFF7CCFF98
:1059E0000A4802B0BDE81040FFF72CBA08480DF095
:1059F0001DFFF5E7A0190020657D0108CA730108A5
:105A0000867D010898190020BF7D0108000402402E
:105A1000DB7D0108FFF7B0BF08B5FFF7ADFF002041
:105A200008BD000000B58FB001A8FCF7E9FD9DF8A6
:105A30000B303BB906480DF0F9FE0FB05DF804EBF2
:105A4000FFF79ABF03480FB05DF804EB0DF0EEBE10
:105A5000DB730108EC73010870B5C2B001A8FCF754
:105A6000CFFD9DF80B309BB9244D0EA8FCF7C8FD67
:105A70009DF83E202B782C469A420BD21BA8FCF7AF
:105A8000BFFD9DF871602EB91D480DF0CFFE2E7040
:105A900042B070BD1B480DF0C9FE47F2305120786E
:105AA00001384843014400F59C500830FDF76CF97B
:105AB0000546014614480DF031FE2846FDF7BEF9B3
:105AC000237828A8772B9CBF01332370FCF798FD1F
:105AD0009DF8A53073B9247835A8FCF791FD9DF8A1
