:020000040800F2
:10000000000200208904000825040008E10300081C
:1000100035040008450400085504000800000000ED
:10002000000000000000000000000000C503000800
:100030006504000800000000A9030008750400081A
:1000400025010008250100082501000825010008F8
:100050002501000825010008750B0008750B000834
:10006000750B0008750B0008750B000825010008CA
:1000700025010008250100082501000825010008C8
:1000800025010008250100082501000825010008B8
:10009000250100082501000825010008750B00084E
:1000A0002501000825010008250100080D1B000896
:1000B0002501000825010008250100082501000888
:1000C0002501000825010008250100082501000878
:1000D00025010008351A00083B1A0008411A0008DB
:1000E000750B0008DD3A000825010008250100080D
:1000F0002501000800000000250100082501000876
:100100002501000825010008250100082501000837
:100110002501000825010008250100082501000827
:100120002501000800F0A6B900F04CBD70470000A2
:1001300070B50C46064600F0A1FA094B094A1D6845
:100140002C44944202D8084A944207D20C234FF020
:10015000FF35336000F09AFA284670BD1C60F9E75D
:100160000002002000400120687800201946104657
:1001700000F034BD1946104600F038BD132303606B
:100180004FF0FF307047132303604FF0FF3070478C
:10019000132303604FF0FF307047002302290360F0
:1001A0008CBF002001207047134910B50C68002057
:1001B00094FAA4F18442B1FA81F108BF4FF0FF3103
:1001C0000E4C0F4B54F8211018600E4B09681A683A
:1001D000A1F1080494420ED022B11079092804BF7D
:1001E0000A2010710922012001F8042C31F9021CA7
:1001F000054A1C60118010BDF80E00200C0F002075
:10020000040F0020000F0020FC0E0020082930B54C
:1002100003791AD9082B14D842791A4B00F1080433
:1002200053F822507DB12D68856053F822502C6020
:1002300043F822400123144A4479A340146823431D
:100240001360017130BD8460F2E7082BF9D945795C
:100250000C4B53F825203AB11468A2420BBF002280
:10026000246843F825201460427953F82230002B8B
:10027000E7D10123044C03FA02F2236823EA0203C4
:100280002360DEE70C0F0020F80E002008B5094BB4
:100290001B681A79082A02D95B79834205D900F0D4
:1002A000F8F918B10122044B1A6008BDBDE80840F6
:1002B00000F072B8000F0020040F0020002408B5E1
:1002C00000F0DCF9084B094A1B88094D1BB242F8C3
:1002D0002340084A214613682868013B1360FFF752
:1002E00095FF2C6000F054F8FC0E00204C0F00200D
:1002F000000F0020080F002013444FF0773223F046
:10030000030310B51C1F43F8042C620742BF4FF0D3
:100310008832A3F1080443F8082C4FF0807344E9B5
:1003200002030D4B002244F80C3C0323022044E955
:1003300005320123224644E907300B2342F8201DF1
:1003400042F8043D013B032BFAD120466FF0020333
:1003500040F8443D10BD00BFBD0200080548064AF4
:10036000064B0168914201D1984201D3181A704797
:100370000430F6E700000020FEE7FEE70002002060
:10038000EFF308807047000000487047000000202D
:1003900000F078F901DFFEE7024A536843F080532A
:1003A0005360704700ED00E0EFF3098020E9F00FA3
:1003B00040F804ED02490968086000F003F8000005
:1003C000000F0020FFF7F0FE04480068016801C933
:1003D000B1E8F00F81F3098800470000000F00200A
:1003E0000D4B0E4A0E496846904203D8984201D9F7
:1003F000002102E009468D46012104207246024296
:1004000002D1EFF3088001E0EFF309802DE9F00F4E
:100410006B4600F06FF800BF58010020004001203B
:100420000002002008B50249042000F0C7FD00BF0B
:10043000B3B4000808B50249062000F0BFFD00BFB4
:10044000A0B4000808B50249072000F0B7FD00BFBE
:100450007AB2000808B50249082000F0AFFD00BFDD
:10046000BFB4000808B50249092000F0A7FD00BF8D
:100470008CB2000808B502490A2000F09FFD00BFB9
:100480009EB200087047704708B5FFF7FBFF6A4649
:10049000114B1249934213D3114A124B12498B420A
:1004A00011D30021114B124A934211D3FFF7EBFFF6
:1004B00000F076FD08F0AEFBBDE8084000F0B4BDEA
:1004C00043F8041BE6E752F8040F43F8040BE6E791
:1004D00043F8041BE8E700BF00000020FEE7FEE74A
:1004E00030E6000800020020F40E0020F80E002084
:1004F000687800202DE9F04F9A464A4B93469A6B54
:100500008FB003925A6B9F6A0492DA6A044605928E
:100510001A6BDB6B06920793434B88461A68434B72
:100520009A4202D0424808F08FFFB8F1000F4ED037
:100530000025404808F088FF2E463F4808F084FF19
:1005400039463E4808F0F8FE05993D4808F0F4FEAB
:1005500006993C4808F0F0FE07993B4808F0ECFE8D
:100560003A0403D50399394808F0E6FE3B0603D563
:100570000499374808F0E0FE364808F065FF594610
:10058000354808F0D9FEB8F1000F1BD1334808F008
:100590005BFF3146324808F0CFFE6946314BC91A3D
:1005A00003D54942304808F0C7FE20468268C36838
:1005B00001698C4641698E46AD46514691E8F00F7F
:1005C0004168006801BE2949052000F0F7FCD4E924
:1005D000023008902069D4E906690990606919F42D
:1005E000007F0A902248D4E9001208BF04F12005D8
:1005F000CDE90C2318BF04F124050B9108F024FF6A
:10060000089B0B9900931B48DDE90C2308F094FE2E
:10061000DDE90912CDF800903346174808F08CFE4A
:100620008BE700BF00ED00E000000020FEE7FEE7E2
:10063000ACB20008C2B2000887B3000890B300084B
:10064000A0B30008B0B30008C0B30008D0B30008DE
:10065000E0B30008F0B30008F5B3000807B40008E1
:1006600038B400085801002060B400088DB40008B8
:10067000F1B200080CB3000849B30008EFF3108092
:1006800072B6704762B6EFF31080704780F310883F
:100690007047EFF30580C0B270470000744B01282B
:1006A0002DE9F047187005D002281FD04FF0FF3019
:1006B000BDE8F0876F4B1A6842F00E021A601A68A4
:1006C00042F400721A605A6842F4E0625A606A4A60
:1006D000136943F004031361FFF7D0FFBFF34F8F9B
:1006E00030BFFFF7D3FF00F0A1FEDFE7614B00252D
:1006F0001A68DFF8C49122F002021A601A68DFF863
:10070000BC8142F004021A601A685C4F42F0010298
:100710001A601A6842F400721A60574A136943F06B
:1007200004031361FFF7AAFF064605F58014803421
:10073000A402204600F05AFD78B1236849F825301C
:10074000E36848F82530A388228D27F815304C4BF4
:1007500023F815200135082DE7D100244FF01808A3
:10076000484F494D08FB04F2D1598B8913F40053CB
:100770000BD08B893A4423F400531B041B0C8B8150
:10078000D068042100F0A8F801232B550134032C74
:10079000E8D14FF48051012000F04CFF01280FD127
:1007A0003A4B1B889A075FD40821394800F094F827
:1007B0000821384800F090F80321374800F08CF801
:1007C0004FF48041002000F035FF01280FD1334B5A
:1007D0001B889B074AD40821314800F07DF8082186
:1007E000304800F079F803212F4800F075F8BFF386
:1007F0004F8F30BF00F01AFE0027DFF8C0A0DFF8EF
:100800007C90DFF8B48007F580148034A402204681
:1008100000F0ECFC78B15AF82730E36039F8173073
:10082000A38058F827302360154B33F81730013771
:10083000082F2385E7D12B7823B11C4A938943F4F1
:10084000005393816B7823B1194A938943F4005381
:100850009381AB7823B1174A938943F40053938172
:100860003046FFF713FF21E704219EE70421B3E799
:10087000331000200070004000ED00E00010002068
:10088000D00F0020D4B40008301000200030014008
:100890000500024007000240060002400038004008
:1008A0000D0402400F0402400E04024000380140D3
:1008B0000044004000480040E00F002010100020DD
:1008C0007047000008B5FFF7D9FE0022014B1A70EF
:1008D00008BD00BF33100020F8B5431C0D4637D0CB
:1008E000012620F00F0400F00F07C0F3832006FA62
:1008F00000F1022000F06AFE032307FA06FC03FA67
:100900000CF3D843226805F00301024022602268FC
:1009100001FA0CF111432160E268BE401040E06032
:100920000020E168C5F3810202FA0CF20A43E2609A
:10093000A288C5F3001522EA0602A280A288BD4063
:100940001543ADB2A580A268B6B21343A360268555
:10095000F8BD00002DE9F0411646421C05468846C8
:100960004BD001212A4A00F00F0442F83430069B94
:1009700002EBC4025360C0F38327084600F026FE52
:1009800041462846FFF7A8FF042C224B37DC012202
:10099000A11D8A401A60012000FA04F2D2431E4BC6
:1009A000996811409960D3F808C006EA0001A14097
:1009B00041EA0C019960D968C6400A40DA60DA68F9
:1009C000A6401643DE600F2604F00C0404F18044B8
:1009D00004F5803405F00302A1689200964021EAF4
:1009E0000601A160A168974000FA05F50F43A760D2
:1009F0005D611868054300201D60BDE8F081092C89
:100A000002DC4FF40002C5E74FF480725A60C2E77F
:100A10003410002000E100E000040140431C70B5E8
:100A20001FD0032200F00F0420F00F031D686600A2
:100A3000B24025EA02050222072C94BF00240124BB
:100A4000B2402A431A6003EB84030F2400F007002E
:100A50001A6A8000844022EA040201FA00F010437E
:100A6000186270BD431C10B517D000F00F04A2101F
:100A70000A4B023253F822300F2200F003018900A2
:100A80008A40C0F383201A408840824205D1012366
:100A9000034AA34011680B43136010BD00000140DE
:100AA00000040140431C10B518D000F00F040C4B9B
:100AB000A110023153F821100F2300F0030292001D
:100AC0009340C0F383200B409040834206D1012223
:100AD0000449A2400B6823EA02030B6010BD00BF6B
:100AE0000000014000040140431C10B516D0032350
:100AF00020F00F0200F00F00410014688B402340EB
:100B0000CB40DBB2012B05D1928A8340134043FADC
:100B100000F010BD2BB9128A0123F6E76FF0010037
:100B2000F7E74FF0FF30F4E7431C07D0012320F034
:100B30000F0200F00F0003FA00F090617047431CB1
:100B400008D0012320F00F0200F00F00103003FA4C
:100B500000F09061704710B50446FFF7C5FF20B163
:100B60002046BDE81040FFF7EABF2046BDE8104030
:100B7000FFF7DABF2DE9F04100244FF001080E4DD8
:100B80000E4F6E692A68164008FA04F3334206D005
:100B90006B6107EBC40357F8342058689047013461
:100BA000102CF1D1064B1B681BB1BDE8F041FFF7DB
:100BB000F3BBBDE8F08100BF000401403410002009
:100BC000040F0020034B044A4FF4E131002000F0F1
:100BD00023BF00BF04020020431200080A4601465A
:100BE000014800F039BB00BF0402002010B50C46DC
:100BF0000A460146002000F047FE204610BD0020B6
:100C000000F044BF38B5044C2568FFF7F8FF2368AF
:100C1000AB42F9D1184338BDFC100020034B1968D2
:100C200019B982B2084600F00FBF7047F4100020D7
:100C300010B5094A136843B19C6881688C4207D398
:100C400003D15C6841688C4202D90360106010BD1A
:100C50001A461B68EFE700BF001100202DE9F0479E
:100C6000294E3268B24602F58032326032681AB9D3
:100C7000264B1A6801321A600020254B254C1A6851
:100C80001860236884461946234FDFF880E0DFF8B8
:100C90008C803A6021B1DEF800508E68AE4217D9E0
:100CA00000B12160BCF1000F10D00021CCF8001081
:100CB0003AB3C3B15168586881428CBF1946114696
:100CC000084612681B6882B903603960BDE8F08786
:100CD0004D68DAF8009005EA08054D45E0D18C46EC
:100CE00001200968D6E71146EAE70BB90260ECE794
:100CF00054685D68AC428CBF1C46144604602046B4
:100D0000DFE73B60E2E700BFFC100020F8100020A6
:100D10000411002000110020081100200000FFFF36
:100D200001232DE9F0412E4F2E4C3B602368A3B9DF
:100D3000FFF794FF4FF6FF75FFF761FFA842FBD066
:100D400000254FF0000823685BB9FFF758FF854284
:100D500024D9FFF783FF0025F5E7FFF750FF05468D
:100D6000EFE75E68FFF74BFF854205D8B3B28342D9
:100D700002D91B1A132BE8D823685E68FFF73FFFE0
:100D8000854202D8B6B28642F6D823681A68C3E90B
:100D900001882260D3E903209047D4E723686BB130
:100DA0005E68FFF72CFF063E14308642CBD300234B
:100DB00030463B60BDE8F041FFF730BFFFF71FFF53
:100DC00085420646C5D800F114039BB2984204D967
:100DD000FFF715FF8642FBD9BBE74FF6FF76E6E744
:100DE000F410002008110020144A1368834210D127
:100DF0001B6813601BB158680638FFF70FBF4FF62A
:100E0000FF70FAE79842196801D1116070471A46DD
:100E10000B46002BF6D10A4A13681BB9094A13681E
:100E200033B9704798421968EFD01A460B46F4E779
:100E300098421968E9D01A460B46F1E708110020DC
:100E4000041100200011002008B50023054A1846AF
:100E5000054900F02DFEBDE808404FF0FF30FFF7D8
:100E6000DDBE00BF210D000840420F00F8B504466A
:100E70000D46FFF7C7FE002385420646236011D3C7
:100E8000EB1E83420ED20335ADB2FFF7B8FE8542AA
:100E9000FBD3FFF7B4FE8542FBD8D4E90330984773
:100EA0000020F8BDFFF7EAFB636807460BB9A368AB
:100EB00013B12046FFF798FF1C4BB5421A681B6818
:100EC00038BF0132A260A26865609A4205D8184B0B
:100ED0001A682B0C1B049A4206D02046FFF7A8FE86
:100EE0003846FFF7D3FBDBE7B6B2B5420FD9114B5B
:100EF00019461A6812B15068854214D222601C60EB
:100F00000B689C42ECD1A81FFFF788FEE8E70A4A6D
:100F1000136813B159688D4202D223601460DFE771
:100F20001A461B68F5E713461268E3E7F81000203D
:100F3000FC100020081100200411002038B50446E0
:100F4000FFF79CFB636805460BB9A36813B1204605
:100F5000FFF74AFF2846BDE83840FFF797BBC36854
:100F600070B504460D46CBB1FFF7E8FF022D0DD852
:100F7000FFF745FE0646FFF742FE801B80B2854222
:100F8000F9D8D4E90330BDE870401847FFF73AFEBE
:100F900029182046BDE87040FFF768BF70BD00000B
:100FA00008B500F011FABDE8084001210148FFF73B
:100FB00093BC00BF000402407047000008B50F4B0F
:100FC0000C461A689AB9012203281A6003D17146A7
:100FD0000B4808F0B1F921460A4808F0ADF900F0D5
:100FE0007FF9094808F0A8F9084808F0A5F9FFF7C3
:100FF00045FBFFF7E1FFFFF765FC00BF0C11002088
:101000002EB5000832B500085AB500084EB50008E4
:1010100008B500F0DFFD00F0D5FD002008BD08B5E3
:1010200000F02CF9FCE700001FB50024FFF726FBB9
:101030000D4B0F221B684FF4807102930B4B0194F0
:1010400000930B480C2300F03BF80A4B07221B6867
:101050004FF44061CDE90143074B084800930C234E
:1010600000F02EF8FFF794F9180200201F10000876
:10107000101100201C020020111000081012002086
:1010800038B50B79082B03D908490320FFF796FFE1
:101090004C7901F10802036813B98B60026038BD16
:1010A00013F8035CAC42F8D31846F4E71CB500080B
:1010B000031F53F8042F9A42FBD0181A7047000000
:1010C0000F2A2DE9F74F05468B4691469A4633D8AD
:1010D00010F003030FBF0B46C3F10403ED18CB1A46
:1010E000303B23F003031AF0080F05EB030419D17A
:1010F0002D6003E012600432A242FBD30193FFF79C
:10110000BDFA012280462749019B51F8226017B29F
:10111000AEB10132212AF8D14046FFF7B7FA6FF09D
:101120008A073BE02A46E7E701212046FFF76EF8F1
:101130004046FFF7ABFA31E06FF015072EE041F8BB
:1011400022402A46DDE90C01E780FFF7D5F80E9B27
:10115000154AA3624FF0FF33C4E9073613681AF04B
:10116000010F03F1010320606562C4F82CB084F81C
:1011700005902671C4E90266C4E90466A66113609D
:10118000D2D10A212046FFF741F81AF0040FCFD13F
:101190004046FFF77BFA4846FFF778F8384603B039
:1011A000BDE8F08F4C0F0020080F00200C4B0D4ABB
:1011B00010B59A60102200210B4C83F82220DA77B8
:1011C00060180131392980F80023F9D11A6942F0F9
:1011D00010021A615A6942F400725A6110BD00BFD0
:1011E00000ED00E00000000800E100E00C4B9A6A0E
:1011F00042F400429A62EFF3138171B65A6942F4E5
:1012000080725A610278986A5A6922F480725A612F
:1012100081F3138880F40040C0F3C030704700BFF2
:1012200000ED00E0F8B505460F46164604463C447E
:101230002046FFF7DBFF631B08B19E42F7D8184634
:10124000F8BD38B5054600F09EFC044605F11000D7
:1012500000F0F8FC204638BDF8B504460D461646A9
:1012600000F1100732462946204600F077FC00B115
:10127000F8BD0121384600F0B5FCF3E773B504244E
:101280000D4D02AA296842F8041D631E995C11B92C
:101290001C46002BF9D1FFF7F1F92B68019A06469D
:1012A0009A4202D160B2FFF7F9F9304602B0BDE8C8
:1012B0007040FFF7EBB900BF2002002010B50446D4
:1012C000FFF7DCF9054A135D1BB1135D013BDBB28F
:1012D0001355BDE81040FFF7D9B900BF2002002028
:1012E0002DE9F04F2D4B8BB01B882D4A2D492E48F0
:1012F000ADF8243008F020F8FFF730F80546FFF786
:1013000043F80446FFF73CF82A46009023464FF482
:101310000071264808F010F801264FF40077DFF836
:101320009C90DFF89CA0DFF89CB025EAE57559F8A1
:1013300026401CB394F80480E26A5AF82830606AA8
:10134000079317440692FFF7B3FE069AB4F9061006
:10135000101A226805440592626A079BCDE90302D0
:10136000E26A584602926279019209AAB8F1080F1E
:10137000C8BF01320092A26A07F0DEFF0136212EBB
:10138000D5D10B4BCDE9017500930A4A19460A489D
:1013900007F0D2FF0BB0BDE8F08F00BF66B50008C4
:1013A00068B500086EB5000873B50008BBB5000845
:1013B00041B6000843B6000847B600084C0F0020AD
:1013C00068B6000805B60008F8B5FFF7EFFE4FF065
:1013D0008051002000F0FAF800F028F8104BFF21AF
:1013E0000220DD694FF0FF3700F0F0F80D4C0E4E93
:1013F000EDB22046FFF7FAFE20B1276004F58064C5
:10140000B442F6D1064B0220D96921F0FF012943ED
:1014100000F0DCF800F0CAFBBDE8F84000F022B9AB
:10142000003802400000024000200240554B13B536
:101430001A68554C42F480721A609A6822F47F52FE
:1014400022F030029A609A6822F0EE429A609A681E
:1014500022F003029A6019684C4A0A4000211A607F
:10146000D9602268022A6DD0B2F5003F1A6842F4B2
:1014700080321A606BD143490A6823681A42FBD054
:10148000434B1A6842F004021A601A6842F00102E3
:101490001A601A6842F002021A609A691007FCD5B5
:1014A0004FF08051002000F091F83A4B1A6822F476
:1014B000C05242F400621A605A68D106FCD4314B23
:1014C0009A6822F47F5222F030029A609A6822F4DD
:1014D0007D029A602268B2F5003F9A680CBF42F420
:1014E000050242F488029A601A6842F080721A601B
:1014F0001A689201FCD540F201129B6826492068C7
:10150000B0F5003F08BF114643F003021D4B9A603F
:101510009A6802F00C020C2AFAD11A681F4822EAD3
:1015200001021A6009221E4B2C3040F8043C23684B
:10153000B3F5003F0CBF1B491B4902B0BDE810408A
:1015400008F047B81A6842F001021A6093E74FF4B6
:10155000003242F210702260019119682268114233
:1015600089D1019A01320192019A8242F5DD1A680D
:1015700042F001021A601A6822F480321A600223D3
:10158000236078E700380240101E0020FEFFFAEECC
:10159000003C02400070004000010100141E0020C9
:1015A0000048E801EFB60008F7B60008014B986A5A
:1015B000704700BF141E0020024A034B1B5C906A58
:1015C00058437047141E0020FFB6000801280AD0B7
:1015D00004D302280CD0BFF34F8F7047074A536AD9
:1015E00019435162F7E7054A136A19431162F2E79A
:1015F000024AD3691943D161EDE700BF00380240C8
:10160000012809D002D302280CD07047084A536A37
:1016100023EA010151627047054A136A23EA010176
:1016200011627047024AD36923EA0101D161704710
:101630000038024001280CD004D302280CD04FF00F
:10164000FF307047064B5B6A0B4214BF012000203D
:101650007047034B1B6AF7E7014BDB69F4E700BFF8
:101660000038024073B54FF4A0324FF480614FF060
:101670000050FFF7D7FD0425484C4FF400222060AE
:101680004FF480614FF000602571FFF7CBFD4FF400
:1016900080732361E368A060B0FBF3F04FF48042F5
:1016A0004FF40061E0603E482575FFF7BBFD4FF049
:1016B000802323624FF40043A3842387394B25778B
:1016C000A0611868FFF792FD4FF4002200284FF444
:1016D00080614FF0006014BF97266426FFF7A2FDDB
:1016E000800AB0F5807F4DD010D8202844D005D88E
:1016F000082822D010284FD078221FE080283DD023
:10170000C0283DD04028F7D1382217E0B0F5407FFF
:101710003CD007D8B0F5C07F36D0B0F5007FEBD114
:1017200045220BE0B0F5C06F32D0B0F5006F31D07C
:10173000B0F5806FE0D1472200E0332240F2294328
:10174000194D142128680092C0F30B0098420CBF79
:10175000164A174A3346174807F07EFE2B68C3F334
:101760000B03A3F21643212B8EBF0023124AD35C36
:1017700084F84E3002B070BD3622DFE74222DDE74A
:101780005A22DBE74322D9E74422D7E74622D5E7AE
:101790004822D3E74922D1E73422CFE7141E0020A4
:1017A00000000808007C0040002004E023B7000887
:1017B00033B700084E1E002001B7000838B51823C3
:1017C00043430D4AD5582C88A4B2A20608D50B4B2A
:1017D000A98803EBC002C9B253F83030506898476B
:1017E000230748BFAB88064B1B681BB1BDE83840D8
:1017F000FEF7D2BD38BD00BF44B70008641E00200C
:10180000040F00202DE9F041182545431D4E0C46DC
:1018100006EB050898F814703846FFF7C7FEB0FBD2
:10182000F4F0072808D83846D8F80410FFF7E8FE87
:101830006FF00100BDE8F08173590F289A8922F4F6
:1018400000524FEA02424FEA12429A819989C2B28B
:101850000DD8083A41F4004142F010029981D2B209
:101860001A819A89002042F400529A81E2E7C1F37A
:101870000E0199814FF6F07102F00F0201400A4308
:10188000EEE700BF44B70008022810B50AD81823B5
:1018900058430A4B0A441B58914207D11A885206F2
:1018A000FCD510BD06490320FFF788FB11F8010B9A
:1018B0001C882406FCD580B29880EDE744B7000868
:1018C0001CB50008022808B503D907490320FFF713
:1018D00075FB1822054B02FB0030BDE8084041684B
:1018E000007DFFF773BE00BF1CB5000844B70008B9
:1018F00002282DE9F04705460F46904603D9424994
:101900000320FFF75BFB1824DFF808A13F4A04FB24
:1019100000A4D4F8089042F8308002EBC002536073
:10192000217C4846FEF7D8FFE668617C3046FEF72A
:10193000D3FF3046FFF7F8F8E17C3046FFF76EF84A
:10194000B8F1000F07D000214846FEF7C5FFA17C83
:101950004846FFF763F82846FFF7B4FF18236B43A8
:101960005AF803400023A3812382A3823B79012BF1
:1019700002BFA38943F48053A3817B79012B2AD032
:10198000022B31D0BB79022B32D0032B34D01BB9C0
:10199000238A43F48053238239682846FFF732FFB5
:1019A00070BB42F20803A381B8F1000F11D01823D5
:1019B000012103FB05A56B7D5AB203F01F0301FA59
:1019C00003F31349520941F82230A38943F0240359
:1019D000A381BDE8F087A38943F48063A381A38931
:1019E00043F40073A381CDE7A38943F48063F9E74F
:1019F000238A43F44053CEE7238A43F40053CAE7D3
:101A00006FF00100E5E700BF1CB50008641E002070
:101A100000E100E044B7000807B500910021ADF8EF
:101A2000041001218DF806106946FFF761FF03B02D
:101A30005DF804FB0020FFF7C1BE0120FFF7BEBE2A
:101A40000220FFF7BBBE0000032910B518DC0E4BC7
:101A500000011C18185863681A4001F10C0300EBD0
:101A600083035A600223028A03FA01F109B222EACF
:101A7000010303828389194389B28181002010BD4B
:101A80004FF0FF30FBE700BF8CB70008024B0001AE
:101A90001B58586A704700BF8CB70008034B000101
:101AA0001A58138843F00103138070478CB700085D
:101AB00070B50D460446F8B911490120C1E900236B
:101AC0001021FFF783FD4FF6FF730E4E0120348087
:101AD000B480F362FFF770FDB0FBF5F001234FF027
:101AE0000062013880B23085B382074B20461A600D
:101AF000FFF7D4FF204670BD4FF0FF30FBE700BF7B
:101B00007C1E00200010014000E100E02DE9F041C2
:101B100000254FF002080E4C0E4F228AA68916406F
:101B200008FA05F2324207D0A389294623EA0203C4
:101B3000A38178683B6898470135042DF0D1064BA6
:101B40001B681BB1BDE8F041FEF726BCBDE8F08183
:101B5000001001407C1E0020040F002070B51446C8
:101B60001CB18568C3689D4201D1101B70BD866899
:101B70000568731C83604368013C013B3340EB5CA8
:101B800001F8013BECE7C26830B584684368121B7A
:101B90009A4208D0C2680468551CC5600020013B09
:101BA0001340E15430BD4FF0FF30FBE708B5002093
:101BB00001F0BCFB012001F0B9FBBDE8084001F0D9
:101BC000E5BC000008B5024800F022FB002008BD7B
:101BD000841E002008B500F0D3FDBDE80840FFF7E3
:101BE00033B9000070B504460D46FEF747FD236883
:101BF00006463BB94FF0FF332360FEF747FD012552
:101C0000284670BDC5B10E4B02211D682846FEF75F
:101C1000FDFA236801330AD105F10803236000238C
:101C2000AB603046FEF732FDFEF7B6FBE7E729462C
:101C30002046FFF725FAF4E7FEF728FDE0E700BFAE
:101C4000000F002070B50446FEF718FD2568064613
:101C50001DB9BDE87040FEF719BD6B1C02D1002311
:101C60002360F6E7284650F808390A212360FEF77A
:101C7000CDFA236813B94FF0FF33236015F8034CF6
:101C80003046FEF703FD2046BDE87040FEF7FEBA81
:101C9000BFF34F8F0549064BCA6802F4E062134355
:101CA000CB60BFF34F8F00BFFDE700BF00ED00E04A
:101CB0000400FA0508B5044807F0C6FB00210348F4
:101CC00001F0E2FEFFF7E4FF26BB0008AD1007B00D
:101CD00008B5074807F0B8FB00F044FB10B9054809
:101CE00007F0B2FB044807F0AFFB002008BD00BFBF
:101CF000A9BA0008C5BA0008EABA000800B5134836
:101D000089B007F0A1FB20220021684606F0D2FF2F
:101D10000F4B1048D3E9002107F00EFB6A46002361
:101D200010210D4802F07AF869460C4807F004FBD0
:101D30000B4B0C48196807F0FFFA0B4B0B48D3E923
:101D4000002107F0F9FA09B05DF804FB4ABB00086E
:101D5000881F002062BF0008901F0020B3BE00084B
:101D6000801F00206ABB0008781F002038BE0008D2
:101D700008B5FFF7C3FF002008BD000030B50128FB
:101D800085B006DC224807F05FFB0124204605B041
:101D900030BD4D681F49284607F0F7FB78B91E484B
:101DA00007F052FB00F01CFC20B11C4807F04CFB74
:101DB000FFF76EFF1A4807F047FB0024E6E71949D2
:101DC000284607F0E2FB044688B91022014668461F
:101DD00006F070FF00F06EFC23466A4600F026FC19
:101DE00008B11148E2E7114807F02EFBCEE7104991
:101DF000284607F0CAFB04460028DED10D4807F04C
:101E000023FB204600F0F1FB0028D3D00A48CDE7A1
:101E1000BBB7000810B8000814B8000830B80008B4
:101E200051B80008D6B800086FB80008A9B8000873
:101E3000DAB80008E2B8000815B9000808B500F0E3
:101E4000DFFB012821D003D3022809D01B4803E07F
:101E50001B4807F0F9FA1B48BDE8084007F0F4BA40
:101E6000194807F0F1FA194807F0EEFA00F02CFCD7
:101E7000174B186000F01EFC164BC3E9000100F080
:101E800013FC154BC3E9000108BD144807F0DCFA48
:101E9000134807F0D9FA134807F0D6FA0A4807F0B2
:101EA000D3FA0A4807F0D0FA0E4807F0CDFA0E48E8
:101EB00007F0CAFA0D4807F0C7FAE0E760BD00086E
:101EC0007DBB0008C7BB0008ECBB00085EBC000877
:101ED000801F0020781F0020881F002095BC00086C
:101EE000C9BC00085BB50008F0BC000840BD000894
:101EF000012808B523D1134807F0A6FAFFF7FEFE24
:101F0000114807F0A1FA00F07BFB78B1022813D842
:101F10000E4B0F491B680F4AD1E9000100F086FB08
:101F200050B10D4807F090FAFFF7B2FE0B4BD3E922
:101F3000000100F0B1FBF3E7094807F085FA002043
:101F400008BD00BF53BB00086DBD0008801F002006
:101F5000781F0020901F002091BD0008881F0020DE
:101F6000B0BD00080228F7B504DCFFF767FF0120C9
:101F700003B0F0BDD1E901544A49284607F005FBFA
:101F800020BB00F03DFB012806461FD100220023A4
:101F90002046CDE9002307F002FB102803D0424879
:101FA00007F052FAE3E732466946204601F020FF87
:101FB00008B93E48F4E7DDE900213D4807F0BCF9E7
:101FC0003C4BDDE90001C3E9000118E03A4928462D
:101FD00007F0DBFA0646E0B9204607F0E0FA2028D1
:101FE00001D03648DCE732463549204601F000FF93
:101FF00008B93448D4E72146334807F09DF9FFF784
:102000007DFE324807F020FA314807F01DFA002023
:10201000AEE73049284607F0B8FA0746E8B900F0BD
:10202000EFFA0128064618D1204607F0B8FA08282A
:10203000014601D02848B3E702AA42F8087D33469A
:10204000204601F0A7FE0028D3D02146234807F000
:1020500073F9234B009A1A60D1E72249284607F00A
:1020600094FAD8B900F0CCFAC0B900220023204677
:10207000CDE9002307F093FA102801D01A488FE722
:1020800001226946204601F0B3FE002891D0DDE927
:102090000021164807F050F9154B92E7154807F054
:1020A000D3F9ACE7CFBD0008D7BD00080BBE0008D0
:1020B00033BE0008781F00204EBE000856BE000840
:1020C000901F00208DBE0008AEBE00088EBF000825
:1020D000C5BF0008C1BE0008CABE0008FDBE00089A
:1020E000801F002011BF000817BF00085DBF000857
:1020F000881F002076BF00082DE9F0410125002748
:102100000446424E036801EB410186B00E44019241
:102110008DF80950D3F8148032462B468DF80A709A
:102120003B21C04723687219D3F814803A212B460B
:102130002046C0472368B21CD3F814803C212B46AC
:102140002046C047236806AA02F80D7D5E69362145
:102150002B462046B04723680DF10A025E693521FF
:102160002B462046B04723680DF10A025E693721ED
:102170002B462046B04723680DF109025E693321E2
:102180002B462046B04723680DF10A025E693D21C7
:102190002B462046B04723680DF10A025E693E21B6
:1021A0002B462046B0470E2306AA22F80C3D236892
:1021B00010215E6920460223B047082306AA22F8B0
:1021C0000A3D236832215E6920462B46B04747F21C
:1021D000305306AA42F8083D236839215E6920463B
:1021E0002B46B047236806AA42F8047D5E69382171
:1021F0002B462046B047236839465D6904232046B4
:102200000DEB0302A84706B0BDE8F081A6B70008B1
:1022100000B5A1B00446FEF753FB20490320FFF7A9
:102220004DF801F063FDFEF70FFE00F0FBFB00F040
:102230000FFA18B91A4807F007F90AE000F06EF92A
:10224000E8B9184807F000F9174807F0FDF800F062
:102250004DF900F0D5F9022813D903280AD1134803
:1022600007F0F2F824221249204606F0FFFC20462F
:1022700002F018F980226946204600F09FFC0D48C4
:10228000D9E730220C49204606F0F0FC0B4801F05B
:102290001CFDFFF7D3FDFFF731FDEBE79CB700080E
:1022A00051B90008AEB9000816BA000890BA000883
:1022B0002402002067BA0008ECBF000800040240B6
:1022C00070B504460646054D0FCD0FC40FCD0FC4A3
:1022D0000FCD0FC42B683046236070BDA01F0020B7
:1022E000014B9870704700BFA01F0020014BD870B1
:1022F000704700BFA01F0020014B1871704700BF3E
:10230000A01F002070B504460E4601F0D7FC08B3AC
:10231000012204F01F039A400F4D6309043355F85E
:10232000230066B10243204645F8232001F0C0FC9B
:10233000224601460948BDE8704006F0FDBF20EA8C
:102340000202204645F8232001F0B2FC2246014655
:102350000348F0E770BD00BFA01F00205EC2000868
:1023600096C2000808B54FF48273034834210380F5
:1023700000F0B0F908BD00BFA01F002070B51248E2
:1023800007F062F80323114C00250126A3710223F4
:102390002022294604F1100063716680257106F041
:1023A00089FC31467E20E571E56084F83060FFF7F6
:1023B000A9FF074807F048F8FFF7D4FFBDE87040D1
:1023C000044807F041B800BFF1C10008A01F002079
:1023D00031C2000858C2000838B51E4C34212046CE
:1023E00000F088F9054620B91B4807F02DF828466B
:1023F00038BD2378022B21D8184D0521284600F03E
:1024000079F92B7883B1164807F01EF86B78E370E2
:10241000AB7823712B79A370124807F015F8FFF7FA
:10242000A1FF114807F010F86378012B01D0FFF7E6
:10243000A5FF6578003518BF0125D8E7032BF3D138
:102440000A4807F001F8012384F8303084F831306D
:10245000E2E700BFA01F002015C10008D41F002024
:1024600047C100087FC1000858C20008ADC100087C
:1024700010B50C46A42102F0F5FB031B584258414D
:1024800010BD10B50C46082102F0ECFB031B5842AE
:10249000584110BD10B5074C0821204602F0E2FB60
:1024A0001022A0602146002000F050FE003018BF2E
:1024B000012010BD9020002010B50A4B0A4CA42129
:1024C000236001232046237102F0CCFBA822C4F82C
:1024D000A40021460C2000F039FE003018BF012076
:1024E00010BD00BFBEBAFECAE01F002010B5084CE8
:1024F000A8222046002106F0DDFB064B00222360C7
:1025000001232371044BBDE810401A70FFF7D4BFBC
:10251000E01F0020BEBAFECA8820002030B5D5B02A
:10252000A8220021684606F0C5FBA82269460C20B7
:1025300000F07AFE002843D0009A224B9A4206D03F
:10254000214806F081FF0024204655B030BD29996E
:102550006846FFF78DFF0446D0B9A4222AA90C20B3
:1025600000F062FEA0B1A0212AA802F07BFB529BE2
:10257000984203D0154806F067FFE5E7144806F0D7
:1025800063FFA8226946134806F070FBFFF794FF2B
:10259000A82269460F4806F069FB002211460E4B3F
:1025A0000C4C187865182D7C0DB1012210460131B4
:1025B0001029F7D102B118700124084B1C70C3E731
:1025C0000446C1E7BEBAFECACFC20008DEC2000898
:1025D000EBC20008E01F0020A1200020882000207E
:1025E00008B500F073FE012008BD08B528B94FF406
:1025F00096614FF4807000F071FE012008BD00006C
:10260000074B187850B1074B1B7833B1064B1B783A
:10261000002B0CBF0220032070470120704700BF31
:10262000A020002088200020A120002038B51546D9
:102630001022064CC4E902012946A018C4F8A030B3
:1026400006F014FBBDE83840FFF736BFE01F00205E
:102650001FB510226946002000F0E6FDA0B10299E6
:102660006846FFF70EFF044628B9084806F0ECFE5E
:10267000204604B010BD10226946054806F0F6FA5F
:102680000122044B1A70F3E70446F1E70EC3000879
:1026900090200020A0200020024BC3E90001FFF79A
:1026A000F9BE00BF90200020014BD3E90001704724
:1026B00090200020014BD3E902017047E01F002069
:1026C00000487047F01F0020014BD3F8A00070476E
:1026D000E01F0020802908B50A4607D801460448B3
:1026E00006F0C4FABDE80840FFF7E6BE002008BDCA
:1026F00000200020802908B50A4604D8034906F0C6
:10270000B5FA012008BD0020FCE700BF0020002032
:10271000062808B503D906490320FEF74FFC45F209
:102720005552044B1A60002258601A6008BD00BF61
:102730001CB5000800300040B0F5805F08B503D339
:1027400005490320FEF73AFC45F25552034B1A6047
:10275000002298601A6008BD1CB5000800300040D7
:102760004CF6CC42014B1A60704700BF003000406D
:102770004AF6AA22014B1A60704700BF00300040A1
:1027800007B504210DEB010003F000FD019800F0F6
:1027900003F803B05DF804FB0146014801F052BAAA
:1027A000A4200020134970B5D1E901460A6884EAE3
:1027B0000603C86822F000425A4082EA420280EAD8
:1027C000500050400D6940F300031D4075404D60BE
:1027D0004D6982EA80222B4053400C608B6004EBF1
:1027E00013238C69C860584043F3000323405840CA
:1027F00070BD00BFA4200020FFF724BA10B586B03A
:102800000446FDF746FF88B9094B0090029001216C
:1028100068460493CDF814D0FFF7E4F9214601A8E7
:1028200000F01CF901216846FFF7DCF906B010BD85
:10283000F9270008074B10B41A6842B9064B07493C
:10284000B0FBF3F403FB140010BC01F03FB810BC64
:10285000704700BFC020002000840C245D290008C0
:102860000020F0B51D4E1E4D33680746013333601E
:102870001C4BB4461A6818602B681B4C1946226022
:1028800021B1DCF800E08E68764513D900B12960EB
:102890007FB100213960FAB183B151685868814233
:1028A0008CBF19461146084612681B6842B903607E
:1028B0002160F0BD0F4601200968E1E71146F2E70B
:1028C0000BB90260F4E755685E68B5428CBF1D46DF
:1028D000154605602846E7E72360EAE7C4200020A4
:1028E000C8200020CC200020D0200020134A1368EC
:1028F00083420ED11B68136013B15868FFF79ABF6B
:102900000F48FBE79842196801D1116070471A46D9
:102910000B46002BF6D10B4A13681BB90A4A136801
:1029200033B9704798421968EFD01A460B46F4E75E
:1029300098421968E9D01A460B46F1E7D0200020EA
:1029400000840C24CC200020C820002007B501A85A
:1029500001F03AF8019803B05DF804FB2DE9F84363
:1029600001232D4D2D4F2C683B6074B9FFF778FF84
:102970004FF000082A4E2B685BB9FFF7E7FF84424F
:102980002CD9FFF76DFF0024F5E7FFF7DFFF0446C2
:10299000EEE7D3F80490FFF7D9FF844208D8B9FBDB
:1029A000F6F306FB1393834202D91B1A032BE4D8D8
:1029B0002B68D3F80490FFF7C9FF844205D8B9FB10
:1029C000F6F306FB13938342F2D82B681A68C3E927
:1029D00001882A60D3E903209047CCE72B686BB1CC
:1029E000D3F80490FFF7B2FF04308145C3D300232E
:1029F00048463B60BDE8F843FFF71CBFFFF7A6FF62
:102A00008442BED8021DB2FBF6F306FB13239842A4
:102A1000B7D8DFF80C90EAE7D0200020C0200020D3
:102A200000840C2408B500F0B1FDBDE80840014861
:102A3000FFF700BF00840C2438B50446FDF71EFEE6
:102A4000636805460BB9A36813B12046FFF74EFF34
:102A50002846BDE83840FDF719BE0000C3682DE9DF
:102A6000F04104460D46002B6BD0FFF7E5FF032D28
:102A700004D8D4E90330BDE8F0411847FFF766FFFA
:102A8000314B05449D4282BF05F15C45A5F54825C3
:102A9000A5F57F75FFF75AFF00238542074623609F
:102AA00002D32B1F9842E4D8FDF7E8FD6368064681
:102AB0000BB9A36813B12046FFF718FF234BBD42A3
:102AC0001A681B6838BF0132A260A168656099422C
:102AD00013D91F4A136833B1986881420AD802D1CA
:102AE0005868854206D2236014603046BDE8F04144
:102AF000FDF7CCBD1A461B68EDE7164AB7FBF2F3AB
:102B000002FB1377BD420FD9134B19461A6812B155
:102B10005068854212D222601C600B689C42E4D14E
:102B20002846FFF787FEE0E70C4A1368002BDAD04F
:102B300059688D42D7D31A461B68F7E713461268C7
:102B4000E5E7BDE8F08100BFFB830C24C420002032
:102B5000C820002000840C24D0200020CC2000209D
:102B600038B50D46044638B1206828B1294606F02C
:102B70000CFD70B10C34F7E7074C14B9002038BDD8
:102B80000C3420680028F9D0294606F0FEFC002805
:102B9000F6D1A068F3E700BFA8C3000808B53E203F
:102BA00006F0E2FB202006F0DFFB034B1B68986871
:102BB000BDE8084005F024BFB80C002005460C46CF
:102BC00016462DE9804883B000AFFFF7E7FFA04627
:102BD0004FF0000B06F1FF3AA8EB04035345F4DA7B
:102BE00006F006F8031EF0DB0D2B01D00A2B1FD1D7
:102BF0004FF0000A0D2088F800A006F0B5FB0A206F
:102C000006F0B2FB4445E0D0214653465246D44636
:102C10000878202832D9222801D027283BD191F8E2
:102C200001E0BEF1000F1DD16A4806F00DFCCCE7B3
:102C3000082B01D07F2B10D14445CDD008F801BC22
:102C4000082006F091FB202006F08EFB082008F1FA
:102C5000FF3906F089FBC846BEE708F1010988F88C
:102C60000030F6E7BEF15C0F0DD0013191F800E0C5
:102C70008645D4D148782028D6D801320878E8B1E2
:102C800001F801CBC4E791F802E0BEF1000FCBD010
:102C900001330231EAE791F800E04878BEF15C0FB9
:102CA0000AD101330028BFD0481C411C407822289B
:102CB000BAD02028EFD8E0E70846F6E7002A84D00B
:102CC00091000E3121F00701EA46ADEB010DEB4614
:102CD000A4464BF822009CF800E061460CF1010C80
:102CE000BEF1000FF7D0BEF1220F02D0BEF1270FC8
:102CF00000D101314BF820108C469CF800E00131E6
:102D0000BEF1000FF8D101309042E4D1ABF1040CD8
:102D100013B15CF8041FB9B9DBF8001028467A60DB
:102D2000FFF71EFF0346D8B17A6859461046984708
:102D3000D5464AE7BEF15C0F06D190F800E0BEF13F
:102D4000000F08D1013BE7D0084611F801EBBEF1B6
:102D5000000FEFD1DCE790F801E000F801EBECE7C1
:102D6000DBF800101C4806F010FC60BB1B4A1C4935
:102D70001C4806F0E1FA1C4806F066FB7DB1194BD1
:102D800005F10C0B0BF10C0B5BF8181C39B1184654
:102D90005BF8142C7B6006F0CFFA7B68F2E7134BEC
:102DA000002BC5D003F10C0B0E4B0BF10C0B5BF899
:102DB000181C0029BCD018465BF8142C7B6006F068
:102DC000BBFA7B68F1E7DBF80010094806F0B4FABB
:102DD000AEE700BF25C300083EC3000843C3000898
:102DE0004FC3000857C3000861C30008A8C3000808
:102DF00089C3000808B502F0EBF8002008BD08B54B
:102E0000FEF76EFA002008BD012838B511D10C4D2F
:102E100000202C68FEF73AFE2B689C42F8D1044350
:102E20002146084806F088FA2046FFF7B5FC002046
:102E300038BD486805F030FD044601460248F1E718
:102E4000FC100020AEC40008D4C4000808B5FFF789
:102E5000A9FC0146024806F06FFA002008BD00BF39
:102E6000A9C400081FB5D0E9042103680132029308
:102E7000436801F26C71019383680093C36803484F
:102E800006F05AFA002005B05DF804FB05C50008FD
:102E9000014806F0D9BA00BFF6C4000808B50E48CC
:102EA00006F0D2FA0D4806F0CFFA0D4806F0CCFA3B
:102EB0000C4806F0C9FA0C4806F0C6FA0B4806F0B2
:102EC000C3FA0B4806F0C0FA0A4806F0BDFA0A48F1
:102ED00006F0BAFA002008BDF0C5000811C60008C7
:102EE0001BC600083CC600085EC6000887C600086E
:102EF000B0C60008F5C6000816C7000837B50C466E
:102F0000054601A90A22006806F006FC00B2A0F2FC
:102F10006C706061019801A90A22013006F0FCFB87
:102F200000B201382061019801A90A22013006F09F
:102F3000F3FB00B2E06001A90A22686806F0ECFB2E
:102F400000B2A060019801A90A22013006F0E4FB5A
:102F500000B26060019801A90A22013006F0DCFB92
:102F600000B22060D4E9040202F26C720128D8BFDA
:102F7000013A04236FF0630192FBF3F392FBF1F14A
:102F800013440B444FF4C87192FBF1F21344094A05
:102F900052F8202000201344E2681344072293FBD8
:102FA000F2F2C2EBC2029B1AA3614FF0FF3323621D
:102FB00003B030BD4CC7000870B501288AB0064682
:102FC0000D4603DCFFF76AFF012408E007223A49B7
:102FD000686806F0ECFA044620B900F065FD20466A
:102FE0000AB070BD08223549686806F0E0FA044668
:102FF00010B900F065FDF2E708223149686806F073
:10300000D6FA044610B900F0EFFBE8E708222D4994
:10301000686806F0CCFA044658B901A800F0A0FB95
:1030200018B901A8FFF71EFFD9E7274806F00CFAE8
:10303000D5E708222549686806F0B9FA044688B938
:10304000042E0FD101A905F10800FFF757FF002852
:10305000C5D122461E4901A800F0D8FB0130BED1DF
:103060001C48E3E707221C49686806F0A0FA0446FA
:1030700030B901A800F02EFB0028D2D01748D5E7C0
:1030800007221749686806F092FA044678B9042EB8
:103090000DD101A905F10800FFF730FF00289ED1EE
:1030A00001A800F0C3FA013099D10E48BEE7696863
:1030B0000D4806F041F985E724C500082CC5000835
:1030C00035C5000840C5000849C5000862C50008AC
:1030D000912E00086BC5000884C500088CC5000847
:1030E000A4C50008ACC50008C4C50008084B10B54D
:1030F0009B690446043B834203D206490320FDF743
:103100005DFF00F04FFD044B1B68E05810BD00BF91
:10311000141E00201CB500084802002038B5084BDA
:1031200004469B690D46043B834203D205490320B4
:10313000FDF744FF00F036FD034B1B68E55038BD3A
:10314000141E00201CB5000848020020334B2DE956
:10315000F0479B69154682189A4206460F4603D9E6
:103160002F490320FDF72AFF00F000FD16F00304AD
:1031700018D0A6EB040AC4F104085046FFF7B6FFC6
:10318000A84528BFA846274B4246186099461819FB
:10319000394657B305F06AFDD9F800105046FFF7DD
:1031A000BDFF44462D1B05F00308DFF878A025F08D
:1031B00003052544A5421BD1B8F1000F10D02644C9
:1031C0003046FFF793FF174D424628600FB3391979
:1031D000284605F04BFD29683046FFF79FFF444421
:1031E00000F0D4FC2046BDE8F08705F063FDD3E78E
:1031F00004EB06095FB1391904220A4805F036FDCF
:10320000DAF800104846FFF789FF0434D2E7394660
:10321000F8E73946284605F04DFDDCE7141E00208E
:103220001CB50008D42000202DE9F843244B144697
:103230009B6982189A420646884603D92149032091
:10324000FDF7BCFE00F092FC16F003050FD0C5F1AF
:103250000407701BFFF74AFFA74228BF27461A49F9
:103260003A4608602944404605F000FD3D46641B8F
:1032700004F00307DFF8509024F003042C44A54227
:1032800010D157B13019FFF731FF0F493A460860A6
:1032900008EB040005F0EAFC3C4400F077FC204613
:1032A000BDE8F883A819FFF721FF0422C9F8000040
:1032B000054908EB050005F0D9FC0435DFE700BF40
:1032C000141E00201CB50008D42000200021024B51
:1032D00008469A69FFF73ABF141E00200A460021EB
:1032E000FFF734BFF8B5104C012104EB40146768B8
:1032F0003846FDF7F1FAA66800213046FDF7ECFAF2
:10330000E56801212846FDF7E7FA247D3846214685
:10331000FDF784FB21463046FDF780FB2146284619
:10332000BDE8F840FDF77ABB7CC70008012870B5FE
:10333000044603D90A490320FDF740FE0025094B46
:10334000094E43F820506401FFF7CCFF3319996907
:10335000187FFEF73BF933591D809D839D8070BD1A
:103360001CB50008D82000207CC70008012838B50B
:103370000C4624D84A1C25D021F0FF0313F5807F8A
:1033800002D111F0FF0F1DD114F5807F0FD10F4C2A
:1033900004EB401425696B1C14D001212846FDF76D
:1033A0009BFA217D2846FDF739FB002038BD01211D
:1033B0002046FDF791FA2046FDF7B6FBF5E74FF002
:1033C000FF30F3E76FF00100F0E700BF7CC70008B3
:1033D0002DE9F843074617489846DFF860901446F1
:1033E0000E4600EB870001217F01FEF7FBFB09EB96
:1033F00007031D7F99692846FEF7E8F80E4A05EB9A
:103400008505154415F8082059F8071044F0040400
:1034100044EAC20416F5807F0C8015BF0B888B88A8
:1034200043F4407343F0040314BF0B808B800020EF
:10343000BDE8F883D8200020BCC700087CC700087E
:10344000074A4301D25800231380938823F00403D2
:103450001B041B0C9380034B03EB8000FEF7F2BBB5
:103460007CC70008D82000202DE9F8430F46DDE98D
:10347000086891461D4623B91EB933490320FDF75C
:103480009DFD324B40011C5817F5807F238843F087
:103490004003238004D07B1C02D03846FDF74FFB4D
:1034A000002E2FD1A844454523D123899907FCD567
:1034B00023891A06FCD42389DB0721D423899907A1
:1034C000FCD523891A06FCD4B9F1000F3AD17B1C34
:1034D00038D0238817F5807F23F040034FEA034359
:1034E0004FEA134323802DD03846BDE8F843FDF75B
:1034F0001BBB23899807FCD515F8013B2373D2E742
:10350000A389D8E7E5B93046B0444045D6D02389F1
:103510009E07FCD525732389D907FCD5237B00F8AA
:10352000013BF2E722899207FCD5EA5C22732289EB
:10353000D007FCD5227BF25401339845F2D1BDE788
:103540000023FAE7BDE8F8831CB500087CC7000833
:103550000023092804DC40EA03108840104070472B
:1035600001330A38F5E7104020FA01F10A200B1167
:1035700001F00F0100FB031070470000CA22024B4C
:103580005A6253225A6270470028004008B502F080
:103590003BFE02F029FE204B5A6B22F440325A6364
:1035A0005A6B42F482025A63FFF7E8FF1B4BDA685A
:1035B00042F08002DA60DA685106FCD500229A6097
:1035C0008022DA60164A1A619A6822F040029A60F4
:1035D0009A6822F400629A60DA6822F08002DA6067
:1035E0000E4BDA685206FCD4FF225A620D4BDA68A1
:1035F00022F40032DA609A6842F400329A601A6863
:1036000042F400321A605A6942F400325A614FF4AF
:103610000072054B5A6008BD003802400028004087
:10362000FF0F07000004014000E100E070B5284CE6
:103630000546FFF7A3FFE36843F08003E360E36818
:103640005806FCD5642368694FF47F0290FBF3F6BB
:10365000102103FB1600FFF77BFF4FF4F8520646DC
:1036600008212869FFF774FF4FF4604206430D21DB
:10367000A869FFF76DFF3F2206430021E868FFF7C6
:1036800067FF304360604FF47C12A8681021FFF799
:103690005FFF4FF4FE42064608216868FFF758FFB7
:1036A0007F22064300212868FFF752FF3043206045
:1036B000E36823F08003E360054B1A46D9684906A6
:1036C000FCD4FF215962D3689B06FCD5002070BD55
:1036D00000280040214B70B51D685E6804464FF419
:1036E0007F0210213046FFF73EFF643060614FF4E7
:1036F000F85208213046FFF736FF3F2220610021B3
:103700003046FFF730FF4FF46042E0600D21304655
:10371000FFF729FF07280ABF0023A061A3614FF428
:103720007C1210212846FFF71EFF6A02A06005D513
:103730000A4B9B685B0644BF0C30A0604FF4FE420E
:1037400008212846FFF70FFF7F22606000212846EE
:10375000FFF709FF2060002070BD00BF0028004077
:10376000204B70B55E6804464FF47F02102130464E
:10377000DD69FFF7F8FE643060614FF4F85208210C
:103780003046FFF7F0FE6B00206121D54FF4604218
:103790000D212846FFF7E7FE0023072808BF002079
:1037A000E360A0614FF47C1210212846FFF7DBFE96
:1037B0004FF4FE42A06008212846FFF7D4FE7F2286
:1037C000606000212846FFF7CEFE2060002070BD1B
:1037D0004FF07C5218212846FFF7C5FE0723E06012
:1037E000A361DFE700280040064B9A6822F4885264
:1037F0009A60DA68D207FCD50022034B1A60DA60BF
:10380000704700BF00280040E020002070B504464B
:103810001046FFF7B3FEFFF7E7FF2A4BE668196093
:10382000D86086BBA0694FF07C52002808BF0720F3
:103830001821FFF78DFE4FF47C1205461021A06879
:10384000FFF786FE4FF4FE42054308216068FFF74C
:103850007FFE7F22054331462068FFF779FE1A4B31
:103860002843D861DA6942F08042DA61164B0020C1
:10387000DA6822F48072DA609A6842F488529A60B8
:10388000FF225A6270BD4FF07C5218213046FFF77C
:103890005FFE4FF47C1205461021A068FFF758FE2A
:1038A0004FF4FE42054308216068FFF751FE7F2276
:1038B000054300212068FFF74BFE034B2843D861E6
:1038C000D4E700BFE0200020002800402DE9F74F9A
:1038D000154607460E46FFF751FE374B9A6822F40D
:1038E00008529A60DA689207FCD54FF47A744EF663
:1038F000602B324B3248B7FBFBF2B7FBF0F0B7FB63
:10390000F4F8B7FBF3F318214FF03C0B0BFB128AD2
:103910000BFB132B01FB1033002808BF07204FF0CF
:103920007C520193FFF714FE019B81464FF47C12F9
:1039300018461021FFF70CFE4FF4FE4249EA000939
:1039400008215846FFF704FE7F2249EA00090021BA
:103950005046FFF7FDFDF42104FB18777C43B4FBD0
:10396000F1F4154B49EA000018621A6AC4F57F6445
:1039700042F080421A629A6C0F3422F4FF4222F025
:103980007F0242F00062E4B214439C649A68002013
:1039900042F400729A609A6842F400529A60DA68BF
:1039A00022F40072DA60074A56601561FF225A62FB
:1039B00003B0BDE8F08F00BF0028004080EE360065
:1039C000005C2605E02000202DE9F84305462C4B3D
:1039D000DA6822F02002DA60DA689106FCD56FF02E
:1039E000F3044FF47A769A6A996A914218BF9A6AF8
:1039F000234B544304F5732404F60C74B4FBF6F61D
:103A0000DA6822F02002DA60DA689206FCD5D3F890
:103A100000801A680D21424518BFD3F80080184B6A
:103A20004FF460425868FFF79EFD4FF47C12044645
:103A300010214046FFF797FD4FF4FE4281460821D2
:103A40004046FFF790FD7F22074600214046FFF7E2
:103A50008AFD4FF461633C22072C08BF002403FB5E
:103A600009F302FB07370744064800FB04744FF4D0
:103A70007A7000FB046400202C60BDE8F88300BF6E
:103A800000280040805101000022064B82B00192C4
:103A90000193019B03EB81010191019B186010468A
:103AA00002B070475028004008B502F09DFB034A61
:103AB000536B43F48003536308BD00BF00380240DA
:103AC00008B502F091FB044A536B23F4800353635F
:103AD000BDE8084002F090BB0038024010B51F4C12
:103AE000E368D8050DD51E4A13680BB1D068984716
:103AF000E3681C4A23F48073E360536943F40033A2
:103B00005361164CE36899050DD5154A53680BB1FE
:103B100010699847E368134A23F40073E36053691C
:103B200043F4003353610D4BDA6852050DD5DA6862
:103B300022F48062DA600A4A93680BB150699847B0
:103B4000084A536943F480135361074B1B681BB148
:103B5000BDE81040FCF720BC10BD00BF00280040AD
:103B6000E020002000040140040F0020044B5A68AC
:103B7000D20741BF034ADA60034ADA60704700BFE8
:103B8000003C0240EFCDAB8905040302044B5A68A8
:103B9000D2075EBF5A6842F001025A60704700BF08
:103BA000003C02400D4B9A69D1070BD59A69D207A8
:103BB000FCD40A4B9A69920742BF9A6922F002022A
:103BC0009A6170479A69D005F3D59A6942F4807278
:103BD0009A619A69D107FCD4EBE700BF003C024030
:103BE000036830B5D0E90115C26881EA050423F005
:103BF0000043634083EA430382EA52025A4042F39D
:103C0000000483EA82230160C260016942692140A5
:103C10001440694063404160836030BD036833F005
:103C200000430DD143685BB983684BB9C3683BB9A6
:103C3000492354224E21C0E900235923C0E902132D
:103C40007047000038B501250369044643604369A5
:103C5000016083608369C3600E486B1E03F0030339
:103C600054F8233005F0030183EA937300FB0353F8
:103C700054F8212001355340082D44F82130ECD16F
:103C80002046FFF7CBFF2046FFF7AAFF013DFAD100
:103C900038BD00BF6589076C00207047024B186073
:103CA000024B1960704700BFF8200020FC20002064
:103CB00008B5FFF7F1FF00B1013008BD08B5FFF707
:103CC000EBFF003018BF012008BD38B505460424BD
:103CD0002846FCF740FF3220FEF790FD013CF7D16B
:103CE0002846BDE83840FCF72ABF000070B5184CE4
:103CF000204605F0A9FB174805F0A6FB164805F07D
:103D0000A3FB164805F0A0FB2046154C05F09CFBD4
:103D1000144B154A1549164805F00EFB54F8041CBF
:103D2000144A2346B1FBF2F2134804F10E0105F0E8
:103D300003FB54F8143C54F8242C54F82C1C9B0A14
:103D4000920A890A0D48BDE8704005F0F5BA00BF37
:103D5000C6C70008F0C700081AC8000839C800081C
:103D6000401E00205BC8000864C8000870C8000836
:103D700075C8000840420F008AC80008A1C80008A2
:103D8000402802D83038C0B27047602894BF373816
:103D90005738F8E710B5CC0728D49BB9831C013AF3
:103DA000023313F8040C08B9012010BDFFF7E8FF37
:103DB000014613F8030CFFF7E3FF40EA011002F895
:103DC000010FEDE78B1E034402EB61018A42A3F170
:103DD0000203E9D09878FFF7D3FF0446D878FFF7BD
:103DE000CFFF40EA041002F8010BEFE70020DCE708
:103DF0002DE9F04104460E46174605F0D0FB20445D
:103E0000011B10F8015D0D2DFAD00A2DF8D03B46AC
:103E100032462046BDE8F041FFF7BCBF10B404466F
:103E200010460A46214613B110BC01F002B910BC7D
:103E300001F0EEB8012070474FF0FF3070470000EE
:103E400041F658432DE9F0431B4C85B0E1581B481F
:103E500005F072FA1A4805F06FFA41F6F4360023BD
:103E6000DFF8608004F5E3579A19A25C5D1CDAB9AB
:103E7000472101FB03410A460B4652F840CFD1F8D7
:103E80004890D2F804E00A6D396853F8380FA1EB76
:103E9000090101EB41015B68CDE902C1CDE9000EEA
:103EA0002946404605F048FA642D2B46DCD1002017
:103EB00005B0BDE8F08300BF28310020DDCB00084D
:103EC000F0CB000823CC00082DE9F0470C46ADF5F7
:103ED000067D0AAF9846814692460021ED2238467B
:103EE00004F0E8FE2389002406ADB8F1ED0FADF82B
:103EF00016302A460DF116004FF001034FF0020173
:103F000028BF4FF0ED0806948DF81C40FFF786FFA0
:103F1000012308AE324619468EA808948DF8244035
:103F2000FFF77CFF23463A4641465046FFF776FFAF
:103F30003A4641460E4805F0FFF921464FF480729B
:103F400046A804F0B7FED9F80020D9F80430CDE92E
:103F50000025CDE902674922064946A805F0B0FAD6
:103F600046A9054801F0B8FA0DF5067DBDE8F087D1
:103F70009FC90008B5C900080021002010B50446FB
:103F800088B0026841680B4805F0D6F9122200217A
:103F900003A804F08FFE226863680092064941225C
:103FA00003A805F08DFA03A9044801F095FA08B0BA
:103FB00010BD00BF67C9000893C900080021002098
:103FC00010B5044688B0026841680B4805F0B4F9A2
:103FD0001222002103A804F06DFE2268636800929B
:103FE0000649522203A805F06BFA03A9044801F020
:103FF00073FA08B010BD00BF8CCE000893C900084A
:104000000021002010B5044688B0026841680B48C2
:1040100005F092F91222002103A804F04BFE226859
:104020006368009206494B2203A805F049FA03A9E8
:10403000044801F051FA08B010BD00BF5ACE000884
:1040400093C9000800210020F0B506288BB00C466B
:1040500006D0364805F0F8F94FF0FF300BB0F0BD50
:10406000002600270AA961E9046701226068FFF7BA
:10407000BFFE0028F0D00AA961E902670122A0680A
:10408000FFF7B6FE0028E7D000250AA941F8185D21
:104090000122E068FFF7ACFE0028DDD00AA941F854
:1040A000145D01222069FFF7A3FE0028D4D06069C7
:1040B00004F0F2FB04461E4805F0C6F9DDE90621CE
:1040C0001C4805F039F9DDE908211B4805F034F9F1
:1040D00004991A4805F030F9E4B20599184805F03A
:1040E0002BF92146174805F027F90499164801F0E5
:1040F00039F918B10499144801F03FF940F6381223
:10410000124804994369383002FB0434059B039438
:104110000293DDE90823CDE90023DDE9062301F060
:1041200043F8B0FA80F04009404297E7C8C8000859
:1041300000C900080FC9000824C9000838C90008D0
:104140004AC900085AC900086031002028310020FF
:10415000F0B52548C3B005F077F9FEF7A5FA074694
:104160000E46FEF7A7FA0C460546FEF7A9FAC27BF3
:10417000817B1E4805F0E0F83A4631461C4805F0C0
:10418000DBF82A4621461B4805F0D6F801A8FEF7C1
:1041900097F8194C9DF80610184804EB411105F0EA
:1041A000CBF80EA8FEF78CF81BA89DF83B50FEF745
:1041B00087F828A89DF86E60FEF782F89DF8A33076
:1041C000294603EBC60304EB8304E2680C4805F0C0
:1041D000B3F835A8FEF774F89DF8D810094843B035
:1041E000BDE8F04005F0A8B8C3CE0008DACE00085C
:1041F00062BF000838BE000824CF0008F4CE0008D3
:1042000001CF000814CF000808B5FFF7A1FF002078
:1042100008BD000008B5FEF7ABFABDE8084041F262
:1042200070710148FEF71ABC10310020082100B55A
:10423000D3B00DEB010000F0B7FE0C4C684600F067
:10424000AFFE0A4801F009F90028F7D112A920466B
:1042500001F011F90028F4D012A805F0A0F912A974
:1042600002460120FDF710FBEBE700BF0021002014
:1042700008212DE9F041D2B00DEB010012AC00F0A5
:1042800093FEFF220021204604F014FDDFF8408059
:104290000C4E0D4F684600F083FE0025404600F0AE
:1042A00008FD0135C0B263190D2803F8010CF5D1E2
:1042B00000233A466355B6F900102346034800F040
:1042C000BDFCE7E7606B00200021002028310020C2
:1042D000C869002010B50446A2B08369026841682D
:1042E0000D4805F029F88022002102A804F0E2FC24
:1042F000226894F840106368CDE9002102A84A22A0
:10430000064905F0DDF802A9054801F0E5F8054881
:1043100002F070FB22B010BD06CE00084CCE0008A3
:1043200000210020D86A002030B50328B5B012D093
:10433000424805F089F8424805F086F8414805F002
:1043400083F80121404804F0F7FF404805F07CF86D
:10435000012035B030BDD1E901453D49204605F089
:1043600014F9014638BB0A22284605F0D5F906287B
:10437000044601DD3748E9E70146374804F0DCFF31
:10438000364BE0B25B691870FDF7B6FF1AA8FDF76F
:1043900097FF27A89DF86A40FDF792FF2F4B00205A
:1043A00059699DF89F3003EBC4022D4B03EB820348
:1043B000DB684B60CDE72B49204605F0E6F8014667
:1043C00098B90A22284605F0A7F90128044604DD19
:1043D0000121254804F0B0FFBAE70146234804F064
:1043E000ABFF2046FDF77CFFD0E72149204605F0D2
:1043F000CCF80146F0B90A22284605F08DF90546A9
:104400006846FDF75DFF164C9DF8023004EB431340
:104410009B7A9D420ADB0DA8FDF752FF9DF83630CE
:10442000144804EB4314A17A0139D3E7E8B2FDF74D
:104430005DFFABE721461048CCE700BF5BCC00082E
:1044400074CC00087ACC0008C5CC0008EBCC00087E
:104450001FCD000822CD00084ECD000828310020D5
:1044600024CF000818CD00086BCD000897CD0008B8
:10447000B2CD0008B5CD0008F1CD000813B50C464B
:10448000064800F0F5FB0D2C05D1054B6846B3F945
:10449000001000F03FFD02B010BD00BFC869002051
:1044A0000C3100202DE9F043ADB00546FDF794FF37
:1044B00000BB8D4804F0C8FF8C4804F0C5FFFFF72F
:1044C00047FE002105F10C02104652F80C3B013169
:1044D000002BF9D10C26864D013306FB03F254590B
:1044E000002CF9D10B44122B40F3F78081490320B3
:1044F000FCF764FDFFF72CFE7F4804F0A5FF0421C4
:104500007E48FCF7E9F9002840F0C8807B48FCF7BA
:10451000EBFA002840F0C580794804F095FF794B0C
:10452000794A00241A60FF22DC60C3E9012477483D
:1045300000F074FF764B0622CDE90143754B4FF432
:104540004061009374482346FCF7BAFD734B062282
:104550001880734B4FF48061CDE90143714B724871
:1045600000932346FCF7ACFD704B714A1880012381
:104570004FF4E1311846FDF74FFA013002D16D4892
:1045800004F062FF4FF001086B4B0421CDE91F835B
:10459000A3F58063229303F601032393A3F60D038F
:1045A000249303F206432593434426934FF0FF33AD
:1045B0002793624B6248219303332893FCF78CF9CD
:1045C0005F48FCF791FA044603215D48FCF784F943
:1045D000B4EB080418BF01244FF48077594B299499
:1045E000594C5A4E2361A78230221FA904F128009A
:1045F00004F03CFB88222146304604F037FB544B44
:104600005448336004F020FFFEF74EF8524C534EEE
:10461000C4E90001FEF754F8A06005A8FDF750FEBC
:1046200012A89DF81690FDF74BFE9DF84B301FA881
:1046300003EBC9024A4B03EB8203DB687360FDF7AF
:104640003FFE9DF8803020463370464BC4E9056834
:10465000E361454B2362454B6362454BA362454B87
:10466000E362454B636301F0A9FA08282DD0434863
:1046700004F0EAFE4248FCF757FA41F28830FEF7B0
:10468000BDF8BFF34F8F3F493F4BCA6802F4E06269
:104690001343CB60BFF34F8F00BFFDE73B4804F0EF
:1046A000D3FE3B4B3B4841F27071C360FEF7D6F935
:1046B0000520FEF72DF840F6FF70FEF73DF8FEF7F7
:1046C00057F8FEF74DF8344827E738461821FFF72A
:1046D000E5FA2B48FFF7F9FAF3E6054904F0C6FAC4
:1046E0002DB0BDE8F08300BFC7C9000823CA000889
:1046F000840B00201CB500086ACA000801040240AF
:10470000A4CA0008C8690020D86900200021002040
:1047100052CB000871420008C85D00200C31002017
:104720005ECB00082D420008626B0020606B002009
:104730007D4400086ACB00080C04024008000240D7
:1047400004040240A05CCA33D86A0020B85D00208F
:10475000A0D8000897CB0008283100204C02002088
:1047600024CF0008353E0008D54200080540000867
:10477000C93E00087D3F0008C13F0008BECB0008CD
:104780000004024000ED00E00400FA05D9CA000868
:104790001542000810310020FBCA0008BFF34F8FFC
:1047A0000549064BCA6802F4E0621343CB60BFF3CD
:1047B0004F8F00BFFDE700BF00ED00E00400FA05E9
:1047C0002DE9F04F1D465C1C1B78AFB03F3B064601
:1047D0008946904600F13807172B00F22082DFE867
:1047E00013F09B001E02F900E200D901CD011E0268
:1047F0001C00BF011E025C00E501850121001E02B4
:104800001E021E0218001E021C021E021E021802B8
:10481000C600C249404600F05FFE49460EA800F0BF
:1048200079FB37E00024472700F5DF55DFF82893B0
:10483000DFF828A3143515F8013B43BB07FB0462DE
:104840001346104653F8381F92F878E050F840CFDE
:104850005B684068CDF810E006F5E35ED2F848B03A
:10486000DEF80020CDE90010A2EB0B0202EB4202C1
:10487000CDE902C249464C220EA804F021FE0EA941
:10488000404600F029FE10B9504604F0DDFD013429
:10489000642CD0D12FB0BDE8F08F204604F07FFE0D
:1048A000122802D829469E4823E0002000212EAA83
:1048B00062E92401012310212046FFF76BFA00284A
:1048C000F0D0DDE90A23384600F07FFD074628B91D
:1048D000DDE90A21934804F02FFDDBE705F111081B
:1048E000404604F05CFE441E14F0010304D0294647
:1048F0008D4804F021FDCDE70EAA21464046FFF782
:1049000049FA0028CED002230EAA94FBF3F3B9692A
:10491000304601F029FABDE7204604F040FE122897
:10492000C0D9002000212EAA62E920010123102114
:104930002046FFF72FFA0028B4D0DDE90E233846D1
:1049400000F043FD044618B9784804F07DFDA1E766
:104950001022002105F1110004F0DEFE226884F827
:104960004500C3B26168724804F0E6FC92E7204655
:1049700004F015FE102895D9002000212EAA62E926
:104980002001012310212046FFF704FA002889D0D6
:10499000DDE90E21674804F0CFFCDDE90E23304647
:1049A00001F0FEF976E7204604F0F9FD471E17F006
:1049B00001039CD10EAA39462046FFF7EBF90028E7
:1049C0003FF470AF02220EA997FBF2F2304601F0DD
:1049D0001BFA5FE74669204604F0E1FD32287FF6C6
:1049E00061AF4FF000084FF000092EAA62E9248958
:1049F000012310212046FFF7CDF900283FF452AFE4
:104A00002EAA62E920890123102105F11100FFF788
:104A1000C1F900283FF446AF00242EAA42F8984D71
:104A20000123082105F12100FFF7B4F900283FF424
:104A300039AF0899632902D964223F484BE72EAA6F
:104A400042F8944D0123082105F12900FFF7A2F94E
:104A500000283FF427AF2EAA02F8994D0123022126
:104A600005F13100FFF796F900283FF41BAF3348FA
:104A700004F062FCDDE90A21314804F05DFCDDE967
:104A80000E21304804F058FC08992F4804F054FCDB
:104A900009992E4804F050FC9DF81F102C4804F092
:104AA0004BFC0899384600F05DFC18B1089938466F
:104AB00000F063FC40F638129DF81F30089902FBA5
:104AC00003630393099B38460293DDE90E23CDE986
:104AD0000023DDE90A2300F067FB00283FF4DAAE8B
:104AE0000023037543758375C375D3E600244FF027
:104AF000470800F5DF55143515F8013B43B908FBAD
:104B0000046393F87E301BB12146384600F035FC33
:104B10000134642CF0D10F4817E700BF6FD00008B4
:104B2000ABD00008D1D00008FFD0000837D1000872
:104B30006AD10008A3D10008D7D1000809D2000823
:104B400028D2000839D200084CD200085AD20008F6
:104B500069D2000875D2000872D000088ED0000813
:104B6000204604F01CFD032801D021469BE6204688
:104B700003F092FEC0B2FDF7B3FB8BE6204604F0D3
:104B80000EFD0328F1D1204603F086FEC0B2FDF7EA
:104B9000B3FB7FE6204604F002FD0328E5D1204662
:104BA00003F07AFEC0B2FDF7A1FB73E6204604F0E5
:104BB000F6FC212802D021461A489AE6102200214C
:104BC0000AA804F077F8FDF775FD002206460F46A7
:104BD00020460AA9FFF70CF910B92146124888E6C9
:104BE00000230AAA30463946FDF720FD68B120228D
:104BF00000210EA804F05EF810210AA800230EAAD6
:104C0000FFF70CF90EA9094873E6094804F094FB74
:104C100040E600210748FEF737FFFFF7BFFD2946B2
:104C2000054866E6B4D20008D4D20008AEBE00083B
:104C3000FBD20008AD1007B018D30008FFF7C0BDC5
:104C400010B5074C0A44914200D110BD11F8013B48
:104C500083EA102334F8133083EA002080B2F2E7AD
:104C60003AD300080A46014641F60F50FFF7E8BF65
:104C7000034630B5C46821C8AC429A6816D1651E97
:104C8000805CDD606DB900229A60D3E90224224481
:104C9000651C5C68DD60A2421B6828BF121B99542A
:104CA00030BD013294429A60EFD1ECE74FF0FF3013
:104CB000EBE7C2687AB183680168013AC95CC260F7
:104CC0001AB9002383600846704742680133934253
:104CD0008360F8D1F5E74FF0FF307047F8B505462F
:104CE0000E46FBF7CBFC354B354A1B8807461BB2FB
:104CF00052F823301A6A002A4DD0D3E90541A14267
:104D000049D0611C5961D9690C4046B9196931B95A
:104D1000611C04D13846FBF7B9FC2046F8BD002CD5
:104D20003DDB02EBC40103C985E803001E69002EC8
:104D300037D03168002C19610CDBD3E90650596972
:104D4000691A8842B1BF4FF0FF35691C054099616F
:104D500002EBC505736893E8030085E8030016F8C5
:104D6000043C052B15D000230A217360A6F108002E
:104D7000FBF74CFA16F8034C3846FBF787FC0E2C71
:104D80001AD82046FBF782FA16E03846FBF77EFC7D
:104D900012E00F24F0E74FF0FF34002EB6D0DD60B4
:104DA000C4E7002CF1DA18460321FBF72FFA384646
:104DB000FBF76CFCFBF7F0FA0124AEE7FC0E0020D9
:104DC0004C0F002010B5D0E9063244691C1BA242EA
:104DD00001DA002010BD5C1C13408461F9D4026A22
:104DE00003C902EBC30383E803000120F2E70000DC
:104DF0002DE9F8431E46264B074653F82150254B14
:104E000091461B8803803DB93046FBF73FFC4FF0CD
:104E1000FF342046BDE8F8832B79032B2ED01E4BA0
:104E200001462846D3F80080FFF7CCFF044650B176
:104E30003046FBF72BFC98F80430052B01D1FBF72B
:104E4000ABFA0124E5E7B9F1000F03D13046FBF7D7
:104E50001DFCDEE798F804304046052B0CBF052109
:104E60000421C8F80C70FBF7D1F9414605F1100098
:104E7000FCF706F93046FBF709FCE0E7EB6803C8EE
:104E800083E803000A212846FBF7C0F9F2E700BFD8
:104E90004C0F0020FC0E0020000F002038B5044607
:104EA000FBF7ECFB074B21461B8805462380064B8E
:104EB0001868FFF787FF04462846FBF7E7FB204604
:104EC00038BD00BFFC0E0020000F002008B50F4BBE
:104ED00053F82130B3B1212202801A79032A0BD171
:104EE00003C8DA6882E8030018460A21FBF78EF946
:104EF0000120074B186008BD01461846BDE8084070
:104F0000FFF760BF4FF0FF30F5E700BF4C0F002008
:104F1000040F002070B504460D46FBF7BAFB28B11C
:104F200029462046BDE87040FFF7D0BF094B1B88DB
:104F30001BB2AB4204D12046BDE87040FFF7AEBFC4
:104F4000FBF79CFB2946034601222046BDE8704042
:104F5000FFF74EBFFC0E002070B504460D46FBF770
:104F600098FB064628B129462046BDE87040FFF769
:104F7000ADBF0A4B1B881BB2AB4204D12046BDE833
:104F80007040FFF78BBFFBF779FB3246034629469B
:104F90002046BDE87040FFF72BBF00BFFC0E00208D
:104FA0000121FFF79BBE000008B5074B4A1E1B6896
:104FB0001140186203D005490320FBF7FFFFC3E946
:104FC0000511DA6108BD00BF000F00201CB5000804
:104FD000BFF34F8F0549064BCA6802F4E0621343E2
:104FE000CB60BFF34F8F00BFFDE700BF00ED00E0D7
:104FF0000400FA0538B1054B0A0901F00F019A5C6B
:105000005B5C027043700220704700BF3AD5000815
:10501000F8B50D465700064610B18C18A54201D1CF
:105020003846F8BD304615F8011BFFF7E3FF06448C
:10503000F4E7F8B505460F4616468C18BC4201D178
:105040007000F8BD284614F8011DFFF7D3FF054492
:10505000F4E7632938B504460CD847254D4305F1DC
:10506000200020442022002103F024FE00232C44B1
:1050700084F8443038BD10B5044641F6284200217A
:1050800003F018FE012104F5DD531C3304F5E15251
:1050900003F8011B9342FBD141F624430022E25066
:1050A00010BD2DE9704390460646002447229946DC
:1050B00000F5DD531C3313F8011B41BB02FB0465F3
:1050C00069682868494508BF404520D195F84430B3
:1050D000082B03D121463046FFF7BBFF47210022B2
:1050E000614302F1080301EB83033344186850B9AC
:1050F000069A31441A6091F84430013381F8443003
:105100002846BDE870830132082AEAD1F8E7013465
:10511000642CD0D10025F3E72DE9F043002190461F
:1051200099464FF0470E00F5DD54079D1C3414F8E6
:10513000013BCBB90EFB01FC00EB0C025768166873
:105140004F4508BF46450FD11A4602F108010CEB46
:105150008101415821B18D4203D00132082AF4D196
:1051600001231846BDE8F08301316429DFD1F7E758
:105170002DE9D043904699464722002300F5DD51A2
:105180001C3111F8014B3CB902FB03046768266827
:10519000B94508BFB04505D00133642BF1D10020DB
:1051A000BDE8D0830120FBE72DE9F74F0C460C99B1
:1051B000054600910D999346019100F5E15109686A
:1051C0009A46632966D8FFF7D3FF0646002861D1C7
:1051D000632C5FD841F6BC3805EB040919F80810B8
:1051E00000295AD005F5E157043701213846FCF76C
:1051F000F9FC472262430F9909F8086005EB0208A1
:10520000009BC8F81C1045F802B098F84420C8F874
:105210000830019B072AC8F804A0C8F80C30C8F869
:10522000184088F8466003D921462846FFF711FF49
:1052300047220020114602FB04F600F1080206EBAB
:1052400082022A4413680BBB0E9B13604FF0FF329F
:1052500001FB045484F84220002284F84320227584
:105260006275A275E275012205F5E15584F84620C4
:1052700084F844202A680E9B0132236238462A6053
:10528000FCF7E0FC404603B0BDE8F08F0130082891
:10529000D3D1DBE74FF00008F4E78846F2E72DE9C9
:1052A000F74F0C9900F5E1570191396806466329DB
:1052B00090469946DDF834B052D8FFF759FF0546BD
:1052C00000284DD107F1040A01215046FCF78AFC61
:1052D00006F5DD521C3212F8014B002C3CD00020A8
:1052E00041F6BC317219505447226A430F99B418E1
:1052F000E16146F8028094F84420019B072AC4F833
:105300000490A360C4F80CB0A56184F8460003D9EA
:1053100029463046FFF79DFE47220021554301F103
:10532000080205EB82023244106888B90E993544B0
:10533000116095F84420013285F844203A68013222
:105340003A605046FCF77EFC204603B0BDE8F08F83
:1053500001310829E3D1F1E70135642DBBD1F0E734
:105360000024F1E763299FBF41F6BC334018C05CBD
:1053700080F0010088BF0020704763292DE9F041CB
:1053800004460D461FD841F6BC3700EB010818F85B
:105390000730C3B900F5E156043601213046FCF769
:1053A00021FC29460125204604F5E154FFF751FE72
:1053B000236808F80750013B30462360FCF742FCA5
:1053C0002846BDE8F0810020FBE72DE9D04300210D
:1053D00090469946472200F5DD541C3414F8013BF1
:1053E00053B902FB01035F681E684F4508BF46457D
:1053F00002D11846BDE8D08301316429EED10020E6
:10540000F8E7632908D841F6BC334218D35C1BB9CE
:10541000472303FB010070470020704741F2080357
:105420000022C2504FF0FF3341F20402835000F5D6
:1054300080500360704741F20403C35800F5805068
:1054400001335A42006802F00F0203F00F0358BF05
:1054500053421B1A58425841704700F580531B684D
:10546000013306D141F20403C058431C584258414D
:10547000704700207047F8B505460F46FFF7EDFF6F
:1054800040BB05F580540834012105F580562046BF
:10549000FCF7A8FB31684FF4807205EB0121384618
:1054A00003F0E4FB41F204023368A9588B4208D1AF
:1054B0004FF0FF33AB5020463360FCF7C3FB0120B5
:1054C000F8BD01335A4202F00F0203F00F0358BF38
:1054D0005342F0E70020F3E7F8B504460E46FFF725
:1054E000AAFF074630BBFBF7C9F805462046FFF781
:1054F000B4FF41F2040290B104F58053A7501F603D
:1055000041F20403E0584FF48072314604EB00206E
:1055100003F0ACFB2846FBF7B9F80120F8BDA3580F
:105520000133594201F00F0103F00F0358BF4B4202
:10553000A350E5E70020F1E737B510210A48FFF74F
:1055400033FD43F25645094C6846FFF729FDBDF887
:105550000230AB4204D101980368DB689847F3E757
:10556000204603F071FFEFE7646F002078D5000854
:1055700042680178C068FCF7BFBD000030B5044642
:1055800085B004F114050846009511461A46089B9B
:1055900000F02AFD294604F58C7000F0A5FDA37AE1
:1055A00080F00100C5B22BB1074803F04DFF28463B
:1055B00005B030BD42F28E43226902A8D15E039449
:1055C000FFF7CAFCF3E700BF4AD500082DE9F04118
:1055D0001C46054616460F460698194600F0E0FCA4
:1055E000E27A237B06922D6804F10D02394630469B
:1055F000AC46BDE8F04160472DE9F04F0239DFB01D
:10560000064614460E291CD8DFE811F00F001B00D7
:1056100072011B001B001B001B001B0094016F018B
:105620006F011B001B001B008A01036815695F687E
:1056300000231A461946B847071E05DAB94803F091
:105640007BFE5FB0BDE8F08F336830460026D3F8AC
:1056500004803A4607AB1EA9C0479DF91D30394664
:10566000BDF91E20B04803F067FEBDF81E30A672DB
:10567000238139461EA800F0D5FC0028E1D01F99EF
:105680004B1C1CD005F13800FFF7BBFE0646002876
:10569000D7D005F5E3531B684169036190F84430A6
:1056A0008269073350F8230010AB00930CAB00F075
:1056B00079FC1EA90CA800F0E3FB0028C1D09DF8DE
:1056C0008230013B0B2BBCD801A252F823F000BF63
:1056D000495700088B570008D75700084356000861
:1056E000015700084356000843560008DD570008DC
:1056F000435600084356000843560008CB5800089C
:10570000002E9ED0B6F84230BDF880200133DBB2C7
:10571000934296D8EB6AA6F8422013B12146304650
:10572000984796F840302BB996F8453013B1013BB5
:1057300086F8453010AB009332461EAB214605F18A
:105740002800FFF743FF7CE7002E3FF47AAFB6F85E
:105750004230BDF880200133DBB293423FF671AF97
:10576000EB6AA6F8422013B121463046984796F8D6
:105770004030002B7FF465AF96F84530002B3FF4A6
:1057800060AF013B86F845305BE7002E3FF459AF30
:10579000B6F842309DF880200133DBB29A420CD338
:1057A00010AB009332461EAB214605F12800FFF7EF
:1057B0000DFFBDF88030A6F8423096F845301BB991
:1057C000042200931F996CE06B6B002B3FF439AF00
:1057D0003046984735E7002EACD132E71F9B0133A6
:1057E0007FF42FAF9DF88460182E7FF42AAF1EA996
:1057F000A86800F045FB00283FF423AF1EA9A86865
:1058000000F0CEFB32460DF1850114A803F02EFA0C
:10581000DDE91467DDE916AB9DF86430D5F81C901E
:10582000DDF860800593B9F1000F3ED105F138092C
:10583000CDF8008032463B464846FFF76DFC002815
:105840003FF4FFAE32463B464846FFF791FC002846
:1058500033D1CDE90284CDE900AB32463B46484620
:10586000FFF71DFD804600283FF4EBAE059BC461A9
:1058700080F8403005F5E3531B6803612B6A9847B5
:10588000002388F8423088F8433010230922D8F8E2
:105890001810C8F81400CDE90867CDE90A10009384
:1058A00008AB2046FFF76AFECBE652465B46304621
:1058B0003946C8470028B9D1C3E6CDF80080324642
:1058C0003B464846FFF7EDFBCCE7002E3FF4B9AE70
:1058D00014A8FDF7FFFE14A803F0CEFA0823CDE9C3
:1058E000080100930D2208AB6CE70023A372A8E621
:1058F00041F68C4321690D4ACB5E04F624100C4915
:10590000546001F099FD2046FFF732FE0323E06862
:105910008DF8783003681EAA5D6919210123A84714
:105920000123E3E706D7000821D70008F07700201D
:1059300000093D00D06803689B6898472046FFF740
:1059400017FE0323E0688DF8783003681EAA5C69AF
:1059500019210123A04774E613B589B943F25643D0
:10596000ADF802300A4B0190B3F900106846FFF71A
:10597000D1FA002802DC074803F066FD02B010BD32
:105980001AB905490320FBF719FBFFF735FEF5E7C8
:10599000E46F00204DD700081CB500082DE9F04148
:1059A000E0B018B942490320FBF708FB4022002170
:1059B0000DEB020003F07EF9082110A8FFF7F4FABE
:1059C0003C4803F041FD3C4E03A8FFF7E9FA049D73
:1059D00005F58C78404600F049FB07460028F3D1D6
:1059E00020AC2146404600F04DFB0028ECD027813A
:1059F000002DD7D0A37A2869043B0297072B41D802
:105A0000DFE803F02C404004400440042246816853
:105A100002AB084605F58A7700F0AAFA012138465C
:105A2000FCF7E0F8304603F00FFD02232846AB7286
:105A3000FFF79EFD0023CDE90534029BE8680D3396
:105A40000793036805A91B689847002802DA1B48DA
:105A500003F0FAFC3846FCF7F5F8B5E76168383032
:105A6000FFF7CFFC90F8443082690733416950F862
:105A700023000023009308AB00F094FA02AB224607
:105A800008A9C6E761683830FFF7BBFC90F84430DE
:105A90000CAF07338269416950F8230008AB0097C7
:105AA00000F080FA02AB2246394608A8B2E700BFF0
:105AB0001CB500080CD800083FD8000853D80008CF
:105AC0002DE9F04F054695B018B936490320FBF78C
:105AD00075FA4022002104A803F0ECF8082104A87C
